{
	"Solidity/FundMe.sol": {
		"FundMe": {
			"abi": [
				{
					"inputs": [],
					"name": "fund",
					"outputs": [],
					"stateMutability": "payable",
					"type": "function"
				},
				{
					"inputs": [
						{
							"internalType": "uint256",
							"name": "ethAmount",
							"type": "uint256"
						}
					],
					"name": "getConverstionRate",
					"outputs": [
						{
							"internalType": "uint256",
							"name": "",
							"type": "uint256"
						}
					],
					"stateMutability": "view",
					"type": "function"
				},
				{
					"inputs": [],
					"name": "getPrice",
					"outputs": [
						{
							"internalType": "uint256",
							"name": "",
							"type": "uint256"
						}
					],
					"stateMutability": "view",
					"type": "function"
				},
				{
					"inputs": [],
					"name": "getVersion",
					"outputs": [
						{
							"internalType": "uint256",
							"name": "",
							"type": "uint256"
						}
					],
					"stateMutability": "view",
					"type": "function"
				},
				{
					"inputs": [],
					"name": "minimumUsd",
					"outputs": [
						{
							"internalType": "uint256",
							"name": "",
							"type": "uint256"
						}
					],
					"stateMutability": "view",
					"type": "function"
				}
			],
			"devdoc": {
				"kind": "dev",
				"methods": {},
				"version": 1
			},
			"evm": {
				"assembly": "    /* \"Solidity/FundMe.sol\":261:1691  contract FundMe {... */\n  mstore(0x40, 0x80)\n    /* \"Solidity/FundMe.sol\":312:316  5e18 */\n  0x4563918244f40000\n    /* \"Solidity/FundMe.sol\":284:316  uint256 public minimumUsd = 5e18 */\n  0x00\n  sstore\n    /* \"Solidity/FundMe.sol\":261:1691  contract FundMe {... */\n  callvalue\n  dup1\n  iszero\n  tag_1\n  jumpi\n  0x00\n  dup1\n  revert\ntag_1:\n  pop\n  dataSize(sub_0)\n  dup1\n  dataOffset(sub_0)\n  0x00\n  codecopy\n  0x00\n  return\nstop\n\nsub_0: assembly {\n        /* \"Solidity/FundMe.sol\":261:1691  contract FundMe {... */\n      mstore(0x40, 0x80)\n      jumpi(tag_1, lt(calldatasize, 0x04))\n      shr(0xe0, calldataload(0x00))\n      dup1\n      0x098de820\n      eq\n      tag_2\n      jumpi\n      dup1\n      0x0d8e6e2c\n      eq\n      tag_3\n      jumpi\n      dup1\n      0x98d5fdca\n      eq\n      tag_4\n      jumpi\n      dup1\n      0xa4115c2a\n      eq\n      tag_5\n      jumpi\n      dup1\n      0xb60d4288\n      eq\n      tag_6\n      jumpi\n    tag_1:\n      0x00\n      dup1\n      revert\n        /* \"Solidity/FundMe.sol\":284:316  uint256 public minimumUsd = 5e18 */\n    tag_2:\n      callvalue\n      dup1\n      iszero\n      tag_7\n      jumpi\n      0x00\n      dup1\n      revert\n    tag_7:\n      pop\n      tag_8\n      tag_9\n      jump\t// in\n    tag_8:\n      mload(0x40)\n      tag_10\n      swap2\n      swap1\n      tag_11\n      jump\t// in\n    tag_10:\n      mload(0x40)\n      dup1\n      swap2\n      sub\n      swap1\n      return\n        /* \"Solidity/FundMe.sol\":1532:1683  function getVersion () public view returns (uint256){... */\n    tag_3:\n      callvalue\n      dup1\n      iszero\n      tag_12\n      jumpi\n      0x00\n      dup1\n      revert\n    tag_12:\n      pop\n      tag_13\n      tag_14\n      jump\t// in\n    tag_13:\n      mload(0x40)\n      tag_15\n      swap2\n      swap1\n      tag_11\n      jump\t// in\n    tag_15:\n      mload(0x40)\n      dup1\n      swap2\n      sub\n      swap1\n      return\n        /* \"Solidity/FundMe.sol\":748:1121  function getPrice() public view returns(uint256) {... */\n    tag_4:\n      callvalue\n      dup1\n      iszero\n      tag_16\n      jumpi\n      0x00\n      dup1\n      revert\n    tag_16:\n      pop\n      tag_17\n      tag_18\n      jump\t// in\n    tag_17:\n      mload(0x40)\n      tag_19\n      swap2\n      swap1\n      tag_11\n      jump\t// in\n    tag_19:\n      mload(0x40)\n      dup1\n      swap2\n      sub\n      swap1\n      return\n        /* \"Solidity/FundMe.sol\":1126:1526  function getConverstionRate(uint256 ethAmount) public view returns(uint256){... */\n    tag_5:\n      callvalue\n      dup1\n      iszero\n      tag_20\n      jumpi\n      0x00\n      dup1\n      revert\n    tag_20:\n      pop\n      tag_21\n      0x04\n      dup1\n      calldatasize\n      sub\n      dup2\n      add\n      swap1\n      tag_22\n      swap2\n      swap1\n      tag_23\n      jump\t// in\n    tag_22:\n      tag_24\n      jump\t// in\n    tag_21:\n      mload(0x40)\n      tag_25\n      swap2\n      swap1\n      tag_11\n      jump\t// in\n    tag_25:\n      mload(0x40)\n      dup1\n      swap2\n      sub\n      swap1\n      return\n        /* \"Solidity/FundMe.sol\":323:692  function fund () public payable {... */\n    tag_6:\n      tag_26\n      tag_27\n      jump\t// in\n    tag_26:\n      stop\n        /* \"Solidity/FundMe.sol\":284:316  uint256 public minimumUsd = 5e18 */\n    tag_9:\n      sload(0x00)\n      dup2\n      jump\t// out\n        /* \"Solidity/FundMe.sol\":1532:1683  function getVersion () public view returns (uint256){... */\n    tag_14:\n        /* \"Solidity/FundMe.sol\":1576:1583  uint256 */\n      0x00\n        /* \"Solidity/FundMe.sol\":1623:1665  0x694AA1769357215DE4FAC081bf1f309aDC325306 */\n      0x694aa1769357215de4fac081bf1f309adc325306\n        /* \"Solidity/FundMe.sol\":1601:1674  AggregatorV3Interface(0x694AA1769357215DE4FAC081bf1f309aDC325306).version */\n      0xffffffffffffffffffffffffffffffffffffffff\n      and\n      0x54fd4d50\n        /* \"Solidity/FundMe.sol\":1601:1676  AggregatorV3Interface(0x694AA1769357215DE4FAC081bf1f309aDC325306).version() */\n      mload(0x40)\n      dup2\n      0xffffffff\n      and\n      0xe0\n      shl\n      dup2\n      mstore\n      0x04\n      add\n      0x20\n      mload(0x40)\n      dup1\n      dup4\n      sub\n      dup2\n      dup7\n      gas\n      staticcall\n      iszero\n      dup1\n      iszero\n      tag_30\n      jumpi\n      returndatasize\n      0x00\n      dup1\n      returndatacopy\n      revert(0x00, returndatasize)\n    tag_30:\n      pop\n      pop\n      pop\n      pop\n      mload(0x40)\n      returndatasize\n      not(0x1f)\n      0x1f\n      dup3\n      add\n      and\n      dup3\n      add\n      dup1\n      0x40\n      mstore\n      pop\n      dup2\n      add\n      swap1\n      tag_31\n      swap2\n      swap1\n      tag_32\n      jump\t// in\n    tag_31:\n        /* \"Solidity/FundMe.sol\":1594:1676  return AggregatorV3Interface(0x694AA1769357215DE4FAC081bf1f309aDC325306).version() */\n      swap1\n      pop\n        /* \"Solidity/FundMe.sol\":1532:1683  function getVersion () public view returns (uint256){... */\n      swap1\n      jump\t// out\n        /* \"Solidity/FundMe.sol\":748:1121  function getPrice() public view returns(uint256) {... */\n    tag_18:\n        /* \"Solidity/FundMe.sol\":788:795  uint256 */\n      0x00\n        /* \"Solidity/FundMe.sol\":884:914  AggregatorV3Interface dataFeed */\n      dup1\n        /* \"Solidity/FundMe.sol\":939:981  0x694AA1769357215DE4FAC081bf1f309aDC325306 */\n      0x694aa1769357215de4fac081bf1f309adc325306\n        /* \"Solidity/FundMe.sol\":884:982  AggregatorV3Interface dataFeed = AggregatorV3Interface(0x694AA1769357215DE4FAC081bf1f309aDC325306) */\n      swap1\n      pop\n        /* \"Solidity/FundMe.sol\":994:1006  int256 price */\n      0x00\n        /* \"Solidity/FundMe.sol\":1013:1021  dataFeed */\n      dup2\n        /* \"Solidity/FundMe.sol\":1013:1037  dataFeed.latestRoundData */\n      0xffffffffffffffffffffffffffffffffffffffff\n      and\n      0xfeaf968c\n        /* \"Solidity/FundMe.sol\":1013:1039  dataFeed.latestRoundData() */\n      mload(0x40)\n      dup2\n      0xffffffff\n      and\n      0xe0\n      shl\n      dup2\n      mstore\n      0x04\n      add\n      0xa0\n      mload(0x40)\n      dup1\n      dup4\n      sub\n      dup2\n      dup7\n      gas\n      staticcall\n      iszero\n      dup1\n      iszero\n      tag_35\n      jumpi\n      returndatasize\n      0x00\n      dup1\n      returndatacopy\n      revert(0x00, returndatasize)\n    tag_35:\n      pop\n      pop\n      pop\n      pop\n      mload(0x40)\n      returndatasize\n      not(0x1f)\n      0x1f\n      dup3\n      add\n      and\n      dup3\n      add\n      dup1\n      0x40\n      mstore\n      pop\n      dup2\n      add\n      swap1\n      tag_36\n      swap2\n      swap1\n      tag_37\n      jump\t// in\n    tag_36:\n        /* \"Solidity/FundMe.sol\":992:1039  (,int256 price,,,) = dataFeed.latestRoundData() */\n      pop\n      pop\n      pop\n      swap2\n      pop\n      pop\n        /* \"Solidity/FundMe.sol\":1110:1114  1e10 */\n      0x02540be400\n        /* \"Solidity/FundMe.sol\":1101:1106  price */\n      dup2\n        /* \"Solidity/FundMe.sol\":1093:1114  uint256(price) * 1e10 */\n      tag_38\n      swap2\n      swap1\n      tag_39\n      jump\t// in\n    tag_38:\n        /* \"Solidity/FundMe.sol\":1086:1114  return uint256(price) * 1e10 */\n      swap3\n      pop\n      pop\n      pop\n        /* \"Solidity/FundMe.sol\":748:1121  function getPrice() public view returns(uint256) {... */\n      swap1\n      jump\t// out\n        /* \"Solidity/FundMe.sol\":1126:1526  function getConverstionRate(uint256 ethAmount) public view returns(uint256){... */\n    tag_24:\n        /* \"Solidity/FundMe.sol\":1193:1200  uint256 */\n      0x00\n        /* \"Solidity/FundMe.sol\":1297:1313  uint256 ethPrice */\n      dup1\n        /* \"Solidity/FundMe.sol\":1316:1326  getPrice() */\n      tag_41\n        /* \"Solidity/FundMe.sol\":1316:1324  getPrice */\n      tag_18\n        /* \"Solidity/FundMe.sol\":1316:1326  getPrice() */\n      jump\t// in\n    tag_41:\n        /* \"Solidity/FundMe.sol\":1297:1326  uint256 ethPrice = getPrice() */\n      swap1\n      pop\n        /* \"Solidity/FundMe.sol\":1434:1456  uint256 ethAmountInUsd */\n      0x00\n        /* \"Solidity/FundMe.sol\":1484:1488  1e18 */\n      0x0de0b6b3a7640000\n        /* \"Solidity/FundMe.sol\":1471:1480  ethAmount */\n      dup5\n        /* \"Solidity/FundMe.sol\":1460:1468  ethPrice */\n      dup4\n        /* \"Solidity/FundMe.sol\":1460:1480  ethPrice * ethAmount */\n      tag_42\n      swap2\n      swap1\n      tag_39\n      jump\t// in\n    tag_42:\n        /* \"Solidity/FundMe.sol\":1459:1488  (ethPrice * ethAmount) / 1e18 */\n      tag_43\n      swap2\n      swap1\n      tag_44\n      jump\t// in\n    tag_43:\n        /* \"Solidity/FundMe.sol\":1434:1488  uint256 ethAmountInUsd = (ethPrice * ethAmount) / 1e18 */\n      swap1\n      pop\n        /* \"Solidity/FundMe.sol\":1505:1519  ethAmountInUsd */\n      dup1\n        /* \"Solidity/FundMe.sol\":1498:1519  return ethAmountInUsd */\n      swap3\n      pop\n      pop\n      pop\n        /* \"Solidity/FundMe.sol\":1126:1526  function getConverstionRate(uint256 ethAmount) public view returns(uint256){... */\n      swap2\n      swap1\n      pop\n      jump\t// out\n        /* \"Solidity/FundMe.sol\":323:692  function fund () public payable {... */\n    tag_27:\n        /* \"Solidity/FundMe.sol\":528:538  minimumUsd */\n      sload(0x00)\n        /* \"Solidity/FundMe.sol\":495:524  getConverstionRate(msg.value) */\n      tag_46\n        /* \"Solidity/FundMe.sol\":514:523  msg.value */\n      callvalue\n        /* \"Solidity/FundMe.sol\":495:513  getConverstionRate */\n      tag_24\n        /* \"Solidity/FundMe.sol\":495:524  getConverstionRate(msg.value) */\n      jump\t// in\n    tag_46:\n        /* \"Solidity/FundMe.sol\":495:538  getConverstionRate(msg.value) >= minimumUsd */\n      lt\n      iszero\n        /* \"Solidity/FundMe.sol\":487:565  require(getConverstionRate(msg.value) >= minimumUsd, \"didn't send enough ETH\") */\n      tag_47\n      jumpi\n      mload(0x40)\n      0x08c379a000000000000000000000000000000000000000000000000000000000\n      dup2\n      mstore\n      0x04\n      add\n      tag_48\n      swap1\n      tag_49\n      jump\t// in\n    tag_48:\n      mload(0x40)\n      dup1\n      swap2\n      sub\n      swap1\n      revert\n    tag_47:\n        /* \"Solidity/FundMe.sol\":323:692  function fund () public payable {... */\n      jump\t// out\n        /* \"#utility.yul\":7:84   */\n    tag_50:\n        /* \"#utility.yul\":44:51   */\n      0x00\n        /* \"#utility.yul\":73:78   */\n      dup2\n        /* \"#utility.yul\":62:78   */\n      swap1\n      pop\n        /* \"#utility.yul\":7:84   */\n      swap2\n      swap1\n      pop\n      jump\t// out\n        /* \"#utility.yul\":90:208   */\n    tag_51:\n        /* \"#utility.yul\":177:201   */\n      tag_72\n        /* \"#utility.yul\":195:200   */\n      dup2\n        /* \"#utility.yul\":177:201   */\n      tag_50\n      jump\t// in\n    tag_72:\n        /* \"#utility.yul\":172:175   */\n      dup3\n        /* \"#utility.yul\":165:202   */\n      mstore\n        /* \"#utility.yul\":90:208   */\n      pop\n      pop\n      jump\t// out\n        /* \"#utility.yul\":214:436   */\n    tag_11:\n        /* \"#utility.yul\":307:311   */\n      0x00\n        /* \"#utility.yul\":345:347   */\n      0x20\n        /* \"#utility.yul\":334:343   */\n      dup3\n        /* \"#utility.yul\":330:348   */\n      add\n        /* \"#utility.yul\":322:348   */\n      swap1\n      pop\n        /* \"#utility.yul\":358:429   */\n      tag_74\n        /* \"#utility.yul\":426:427   */\n      0x00\n        /* \"#utility.yul\":415:424   */\n      dup4\n        /* \"#utility.yul\":411:428   */\n      add\n        /* \"#utility.yul\":402:408   */\n      dup5\n        /* \"#utility.yul\":358:429   */\n      tag_51\n      jump\t// in\n    tag_74:\n        /* \"#utility.yul\":214:436   */\n      swap3\n      swap2\n      pop\n      pop\n      jump\t// out\n        /* \"#utility.yul\":523:640   */\n    tag_53:\n        /* \"#utility.yul\":632:633   */\n      0x00\n        /* \"#utility.yul\":629:630   */\n      dup1\n        /* \"#utility.yul\":622:634   */\n      revert\n        /* \"#utility.yul\":769:891   */\n    tag_55:\n        /* \"#utility.yul\":842:866   */\n      tag_79\n        /* \"#utility.yul\":860:865   */\n      dup2\n        /* \"#utility.yul\":842:866   */\n      tag_50\n      jump\t// in\n    tag_79:\n        /* \"#utility.yul\":835:840   */\n      dup2\n        /* \"#utility.yul\":832:867   */\n      eq\n        /* \"#utility.yul\":822:885   */\n      tag_80\n      jumpi\n        /* \"#utility.yul\":881:882   */\n      0x00\n        /* \"#utility.yul\":878:879   */\n      dup1\n        /* \"#utility.yul\":871:883   */\n      revert\n        /* \"#utility.yul\":822:885   */\n    tag_80:\n        /* \"#utility.yul\":769:891   */\n      pop\n      jump\t// out\n        /* \"#utility.yul\":897:1036   */\n    tag_56:\n        /* \"#utility.yul\":943:948   */\n      0x00\n        /* \"#utility.yul\":981:987   */\n      dup2\n        /* \"#utility.yul\":968:988   */\n      calldataload\n        /* \"#utility.yul\":959:988   */\n      swap1\n      pop\n        /* \"#utility.yul\":997:1030   */\n      tag_82\n        /* \"#utility.yul\":1024:1029   */\n      dup2\n        /* \"#utility.yul\":997:1030   */\n      tag_55\n      jump\t// in\n    tag_82:\n        /* \"#utility.yul\":897:1036   */\n      swap3\n      swap2\n      pop\n      pop\n      jump\t// out\n        /* \"#utility.yul\":1042:1371   */\n    tag_23:\n        /* \"#utility.yul\":1101:1107   */\n      0x00\n        /* \"#utility.yul\":1150:1152   */\n      0x20\n        /* \"#utility.yul\":1138:1147   */\n      dup3\n        /* \"#utility.yul\":1129:1136   */\n      dup5\n        /* \"#utility.yul\":1125:1148   */\n      sub\n        /* \"#utility.yul\":1121:1153   */\n      slt\n        /* \"#utility.yul\":1118:1237   */\n      iszero\n      tag_84\n      jumpi\n        /* \"#utility.yul\":1156:1235   */\n      tag_85\n      tag_53\n      jump\t// in\n    tag_85:\n        /* \"#utility.yul\":1118:1237   */\n    tag_84:\n        /* \"#utility.yul\":1276:1277   */\n      0x00\n        /* \"#utility.yul\":1301:1354   */\n      tag_86\n        /* \"#utility.yul\":1346:1353   */\n      dup5\n        /* \"#utility.yul\":1337:1343   */\n      dup3\n        /* \"#utility.yul\":1326:1335   */\n      dup6\n        /* \"#utility.yul\":1322:1344   */\n      add\n        /* \"#utility.yul\":1301:1354   */\n      tag_56\n      jump\t// in\n    tag_86:\n        /* \"#utility.yul\":1291:1354   */\n      swap2\n      pop\n        /* \"#utility.yul\":1247:1364   */\n      pop\n        /* \"#utility.yul\":1042:1371   */\n      swap3\n      swap2\n      pop\n      pop\n      jump\t// out\n        /* \"#utility.yul\":1377:1520   */\n    tag_57:\n        /* \"#utility.yul\":1434:1439   */\n      0x00\n        /* \"#utility.yul\":1465:1471   */\n      dup2\n        /* \"#utility.yul\":1459:1472   */\n      mload\n        /* \"#utility.yul\":1450:1472   */\n      swap1\n      pop\n        /* \"#utility.yul\":1481:1514   */\n      tag_88\n        /* \"#utility.yul\":1508:1513   */\n      dup2\n        /* \"#utility.yul\":1481:1514   */\n      tag_55\n      jump\t// in\n    tag_88:\n        /* \"#utility.yul\":1377:1520   */\n      swap3\n      swap2\n      pop\n      pop\n      jump\t// out\n        /* \"#utility.yul\":1526:1877   */\n    tag_32:\n        /* \"#utility.yul\":1596:1602   */\n      0x00\n        /* \"#utility.yul\":1645:1647   */\n      0x20\n        /* \"#utility.yul\":1633:1642   */\n      dup3\n        /* \"#utility.yul\":1624:1631   */\n      dup5\n        /* \"#utility.yul\":1620:1643   */\n      sub\n        /* \"#utility.yul\":1616:1648   */\n      slt\n        /* \"#utility.yul\":1613:1732   */\n      iszero\n      tag_90\n      jumpi\n        /* \"#utility.yul\":1651:1730   */\n      tag_91\n      tag_53\n      jump\t// in\n    tag_91:\n        /* \"#utility.yul\":1613:1732   */\n    tag_90:\n        /* \"#utility.yul\":1771:1772   */\n      0x00\n        /* \"#utility.yul\":1796:1860   */\n      tag_92\n        /* \"#utility.yul\":1852:1859   */\n      dup5\n        /* \"#utility.yul\":1843:1849   */\n      dup3\n        /* \"#utility.yul\":1832:1841   */\n      dup6\n        /* \"#utility.yul\":1828:1850   */\n      add\n        /* \"#utility.yul\":1796:1860   */\n      tag_57\n      jump\t// in\n    tag_92:\n        /* \"#utility.yul\":1786:1860   */\n      swap2\n      pop\n        /* \"#utility.yul\":1742:1870   */\n      pop\n        /* \"#utility.yul\":1526:1877   */\n      swap3\n      swap2\n      pop\n      pop\n      jump\t// out\n        /* \"#utility.yul\":1883:1988   */\n    tag_58:\n        /* \"#utility.yul\":1919:1926   */\n      0x00\n        /* \"#utility.yul\":1959:1981   */\n      0xffffffffffffffffffff\n        /* \"#utility.yul\":1952:1957   */\n      dup3\n        /* \"#utility.yul\":1948:1982   */\n      and\n        /* \"#utility.yul\":1937:1982   */\n      swap1\n      pop\n        /* \"#utility.yul\":1883:1988   */\n      swap2\n      swap1\n      pop\n      jump\t// out\n        /* \"#utility.yul\":1994:2114   */\n    tag_59:\n        /* \"#utility.yul\":2066:2089   */\n      tag_95\n        /* \"#utility.yul\":2083:2088   */\n      dup2\n        /* \"#utility.yul\":2066:2089   */\n      tag_58\n      jump\t// in\n    tag_95:\n        /* \"#utility.yul\":2059:2064   */\n      dup2\n        /* \"#utility.yul\":2056:2090   */\n      eq\n        /* \"#utility.yul\":2046:2108   */\n      tag_96\n      jumpi\n        /* \"#utility.yul\":2104:2105   */\n      0x00\n        /* \"#utility.yul\":2101:2102   */\n      dup1\n        /* \"#utility.yul\":2094:2106   */\n      revert\n        /* \"#utility.yul\":2046:2108   */\n    tag_96:\n        /* \"#utility.yul\":1994:2114   */\n      pop\n      jump\t// out\n        /* \"#utility.yul\":2120:2261   */\n    tag_60:\n        /* \"#utility.yul\":2176:2181   */\n      0x00\n        /* \"#utility.yul\":2207:2213   */\n      dup2\n        /* \"#utility.yul\":2201:2214   */\n      mload\n        /* \"#utility.yul\":2192:2214   */\n      swap1\n      pop\n        /* \"#utility.yul\":2223:2255   */\n      tag_98\n        /* \"#utility.yul\":2249:2254   */\n      dup2\n        /* \"#utility.yul\":2223:2255   */\n      tag_59\n      jump\t// in\n    tag_98:\n        /* \"#utility.yul\":2120:2261   */\n      swap3\n      swap2\n      pop\n      pop\n      jump\t// out\n        /* \"#utility.yul\":2267:2343   */\n    tag_61:\n        /* \"#utility.yul\":2303:2310   */\n      0x00\n        /* \"#utility.yul\":2332:2337   */\n      dup2\n        /* \"#utility.yul\":2321:2337   */\n      swap1\n      pop\n        /* \"#utility.yul\":2267:2343   */\n      swap2\n      swap1\n      pop\n      jump\t// out\n        /* \"#utility.yul\":2349:2469   */\n    tag_62:\n        /* \"#utility.yul\":2421:2444   */\n      tag_101\n        /* \"#utility.yul\":2438:2443   */\n      dup2\n        /* \"#utility.yul\":2421:2444   */\n      tag_61\n      jump\t// in\n    tag_101:\n        /* \"#utility.yul\":2414:2419   */\n      dup2\n        /* \"#utility.yul\":2411:2445   */\n      eq\n        /* \"#utility.yul\":2401:2463   */\n      tag_102\n      jumpi\n        /* \"#utility.yul\":2459:2460   */\n      0x00\n        /* \"#utility.yul\":2456:2457   */\n      dup1\n        /* \"#utility.yul\":2449:2461   */\n      revert\n        /* \"#utility.yul\":2401:2463   */\n    tag_102:\n        /* \"#utility.yul\":2349:2469   */\n      pop\n      jump\t// out\n        /* \"#utility.yul\":2475:2616   */\n    tag_63:\n        /* \"#utility.yul\":2531:2536   */\n      0x00\n        /* \"#utility.yul\":2562:2568   */\n      dup2\n        /* \"#utility.yul\":2556:2569   */\n      mload\n        /* \"#utility.yul\":2547:2569   */\n      swap1\n      pop\n        /* \"#utility.yul\":2578:2610   */\n      tag_104\n        /* \"#utility.yul\":2604:2609   */\n      dup2\n        /* \"#utility.yul\":2578:2610   */\n      tag_62\n      jump\t// in\n    tag_104:\n        /* \"#utility.yul\":2475:2616   */\n      swap3\n      swap2\n      pop\n      pop\n      jump\t// out\n        /* \"#utility.yul\":2622:3593   */\n    tag_37:\n        /* \"#utility.yul\":2725:2731   */\n      0x00\n        /* \"#utility.yul\":2733:2739   */\n      dup1\n        /* \"#utility.yul\":2741:2747   */\n      0x00\n        /* \"#utility.yul\":2749:2755   */\n      dup1\n        /* \"#utility.yul\":2757:2763   */\n      0x00\n        /* \"#utility.yul\":2806:2809   */\n      0xa0\n        /* \"#utility.yul\":2794:2803   */\n      dup7\n        /* \"#utility.yul\":2785:2792   */\n      dup9\n        /* \"#utility.yul\":2781:2804   */\n      sub\n        /* \"#utility.yul\":2777:2810   */\n      slt\n        /* \"#utility.yul\":2774:2894   */\n      iszero\n      tag_106\n      jumpi\n        /* \"#utility.yul\":2813:2892   */\n      tag_107\n      tag_53\n      jump\t// in\n    tag_107:\n        /* \"#utility.yul\":2774:2894   */\n    tag_106:\n        /* \"#utility.yul\":2933:2934   */\n      0x00\n        /* \"#utility.yul\":2958:3021   */\n      tag_108\n        /* \"#utility.yul\":3013:3020   */\n      dup9\n        /* \"#utility.yul\":3004:3010   */\n      dup3\n        /* \"#utility.yul\":2993:3002   */\n      dup10\n        /* \"#utility.yul\":2989:3011   */\n      add\n        /* \"#utility.yul\":2958:3021   */\n      tag_60\n      jump\t// in\n    tag_108:\n        /* \"#utility.yul\":2948:3021   */\n      swap6\n      pop\n        /* \"#utility.yul\":2904:3031   */\n      pop\n        /* \"#utility.yul\":3070:3072   */\n      0x20\n        /* \"#utility.yul\":3096:3159   */\n      tag_109\n        /* \"#utility.yul\":3151:3158   */\n      dup9\n        /* \"#utility.yul\":3142:3148   */\n      dup3\n        /* \"#utility.yul\":3131:3140   */\n      dup10\n        /* \"#utility.yul\":3127:3149   */\n      add\n        /* \"#utility.yul\":3096:3159   */\n      tag_63\n      jump\t// in\n    tag_109:\n        /* \"#utility.yul\":3086:3159   */\n      swap5\n      pop\n        /* \"#utility.yul\":3041:3169   */\n      pop\n        /* \"#utility.yul\":3208:3210   */\n      0x40\n        /* \"#utility.yul\":3234:3298   */\n      tag_110\n        /* \"#utility.yul\":3290:3297   */\n      dup9\n        /* \"#utility.yul\":3281:3287   */\n      dup3\n        /* \"#utility.yul\":3270:3279   */\n      dup10\n        /* \"#utility.yul\":3266:3288   */\n      add\n        /* \"#utility.yul\":3234:3298   */\n      tag_57\n      jump\t// in\n    tag_110:\n        /* \"#utility.yul\":3224:3298   */\n      swap4\n      pop\n        /* \"#utility.yul\":3179:3308   */\n      pop\n        /* \"#utility.yul\":3347:3349   */\n      0x60\n        /* \"#utility.yul\":3373:3437   */\n      tag_111\n        /* \"#utility.yul\":3429:3436   */\n      dup9\n        /* \"#utility.yul\":3420:3426   */\n      dup3\n        /* \"#utility.yul\":3409:3418   */\n      dup10\n        /* \"#utility.yul\":3405:3427   */\n      add\n        /* \"#utility.yul\":3373:3437   */\n      tag_57\n      jump\t// in\n    tag_111:\n        /* \"#utility.yul\":3363:3437   */\n      swap3\n      pop\n        /* \"#utility.yul\":3318:3447   */\n      pop\n        /* \"#utility.yul\":3486:3489   */\n      0x80\n        /* \"#utility.yul\":3513:3576   */\n      tag_112\n        /* \"#utility.yul\":3568:3575   */\n      dup9\n        /* \"#utility.yul\":3559:3565   */\n      dup3\n        /* \"#utility.yul\":3548:3557   */\n      dup10\n        /* \"#utility.yul\":3544:3566   */\n      add\n        /* \"#utility.yul\":3513:3576   */\n      tag_60\n      jump\t// in\n    tag_112:\n        /* \"#utility.yul\":3503:3576   */\n      swap2\n      pop\n        /* \"#utility.yul\":3457:3586   */\n      pop\n        /* \"#utility.yul\":2622:3593   */\n      swap3\n      swap6\n      pop\n      swap3\n      swap6\n      swap1\n      swap4\n      pop\n      jump\t// out\n        /* \"#utility.yul\":3599:3779   */\n    tag_64:\n        /* \"#utility.yul\":3647:3724   */\n      0x4e487b7100000000000000000000000000000000000000000000000000000000\n        /* \"#utility.yul\":3644:3645   */\n      0x00\n        /* \"#utility.yul\":3637:3725   */\n      mstore\n        /* \"#utility.yul\":3744:3748   */\n      0x11\n        /* \"#utility.yul\":3741:3742   */\n      0x04\n        /* \"#utility.yul\":3734:3749   */\n      mstore\n        /* \"#utility.yul\":3768:3772   */\n      0x24\n        /* \"#utility.yul\":3765:3766   */\n      0x00\n        /* \"#utility.yul\":3758:3773   */\n      revert\n        /* \"#utility.yul\":3785:4195   */\n    tag_39:\n        /* \"#utility.yul\":3825:3832   */\n      0x00\n        /* \"#utility.yul\":3848:3868   */\n      tag_115\n        /* \"#utility.yul\":3866:3867   */\n      dup3\n        /* \"#utility.yul\":3848:3868   */\n      tag_50\n      jump\t// in\n    tag_115:\n        /* \"#utility.yul\":3843:3868   */\n      swap2\n      pop\n        /* \"#utility.yul\":3882:3902   */\n      tag_116\n        /* \"#utility.yul\":3900:3901   */\n      dup4\n        /* \"#utility.yul\":3882:3902   */\n      tag_50\n      jump\t// in\n    tag_116:\n        /* \"#utility.yul\":3877:3902   */\n      swap3\n      pop\n        /* \"#utility.yul\":3937:3938   */\n      dup3\n        /* \"#utility.yul\":3934:3935   */\n      dup3\n        /* \"#utility.yul\":3930:3939   */\n      mul\n        /* \"#utility.yul\":3959:3989   */\n      tag_117\n        /* \"#utility.yul\":3977:3988   */\n      dup2\n        /* \"#utility.yul\":3959:3989   */\n      tag_50\n      jump\t// in\n    tag_117:\n        /* \"#utility.yul\":3948:3989   */\n      swap2\n      pop\n        /* \"#utility.yul\":4138:4139   */\n      dup3\n        /* \"#utility.yul\":4129:4136   */\n      dup3\n        /* \"#utility.yul\":4125:4140   */\n      div\n        /* \"#utility.yul\":4122:4123   */\n      dup5\n        /* \"#utility.yul\":4119:4141   */\n      eq\n        /* \"#utility.yul\":4099:4100   */\n      dup4\n        /* \"#utility.yul\":4092:4101   */\n      iszero\n        /* \"#utility.yul\":4072:4155   */\n      or\n        /* \"#utility.yul\":4049:4188   */\n      tag_118\n      jumpi\n        /* \"#utility.yul\":4168:4186   */\n      tag_119\n      tag_64\n      jump\t// in\n    tag_119:\n        /* \"#utility.yul\":4049:4188   */\n    tag_118:\n        /* \"#utility.yul\":3833:4195   */\n      pop\n        /* \"#utility.yul\":3785:4195   */\n      swap3\n      swap2\n      pop\n      pop\n      jump\t// out\n        /* \"#utility.yul\":4201:4381   */\n    tag_65:\n        /* \"#utility.yul\":4249:4326   */\n      0x4e487b7100000000000000000000000000000000000000000000000000000000\n        /* \"#utility.yul\":4246:4247   */\n      0x00\n        /* \"#utility.yul\":4239:4327   */\n      mstore\n        /* \"#utility.yul\":4346:4350   */\n      0x12\n        /* \"#utility.yul\":4343:4344   */\n      0x04\n        /* \"#utility.yul\":4336:4351   */\n      mstore\n        /* \"#utility.yul\":4370:4374   */\n      0x24\n        /* \"#utility.yul\":4367:4368   */\n      0x00\n        /* \"#utility.yul\":4360:4375   */\n      revert\n        /* \"#utility.yul\":4387:4572   */\n    tag_44:\n        /* \"#utility.yul\":4427:4428   */\n      0x00\n        /* \"#utility.yul\":4444:4464   */\n      tag_122\n        /* \"#utility.yul\":4462:4463   */\n      dup3\n        /* \"#utility.yul\":4444:4464   */\n      tag_50\n      jump\t// in\n    tag_122:\n        /* \"#utility.yul\":4439:4464   */\n      swap2\n      pop\n        /* \"#utility.yul\":4478:4498   */\n      tag_123\n        /* \"#utility.yul\":4496:4497   */\n      dup4\n        /* \"#utility.yul\":4478:4498   */\n      tag_50\n      jump\t// in\n    tag_123:\n        /* \"#utility.yul\":4473:4498   */\n      swap3\n      pop\n        /* \"#utility.yul\":4517:4518   */\n      dup3\n        /* \"#utility.yul\":4507:4542   */\n      tag_124\n      jumpi\n        /* \"#utility.yul\":4522:4540   */\n      tag_125\n      tag_65\n      jump\t// in\n    tag_125:\n        /* \"#utility.yul\":4507:4542   */\n    tag_124:\n        /* \"#utility.yul\":4564:4565   */\n      dup3\n        /* \"#utility.yul\":4561:4562   */\n      dup3\n        /* \"#utility.yul\":4557:4566   */\n      div\n        /* \"#utility.yul\":4552:4566   */\n      swap1\n      pop\n        /* \"#utility.yul\":4387:4572   */\n      swap3\n      swap2\n      pop\n      pop\n      jump\t// out\n        /* \"#utility.yul\":4578:4747   */\n    tag_66:\n        /* \"#utility.yul\":4662:4673   */\n      0x00\n        /* \"#utility.yul\":4696:4702   */\n      dup3\n        /* \"#utility.yul\":4691:4694   */\n      dup3\n        /* \"#utility.yul\":4684:4703   */\n      mstore\n        /* \"#utility.yul\":4736:4740   */\n      0x20\n        /* \"#utility.yul\":4731:4734   */\n      dup3\n        /* \"#utility.yul\":4727:4741   */\n      add\n        /* \"#utility.yul\":4712:4741   */\n      swap1\n      pop\n        /* \"#utility.yul\":4578:4747   */\n      swap3\n      swap2\n      pop\n      pop\n      jump\t// out\n        /* \"#utility.yul\":4753:4925   */\n    tag_67:\n        /* \"#utility.yul\":4893:4917   */\n      0x6469646e27742073656e6420656e6f7567682045544800000000000000000000\n        /* \"#utility.yul\":4889:4890   */\n      0x00\n        /* \"#utility.yul\":4881:4887   */\n      dup3\n        /* \"#utility.yul\":4877:4891   */\n      add\n        /* \"#utility.yul\":4870:4918   */\n      mstore\n        /* \"#utility.yul\":4753:4925   */\n      pop\n      jump\t// out\n        /* \"#utility.yul\":4931:5297   */\n    tag_68:\n        /* \"#utility.yul\":5073:5076   */\n      0x00\n        /* \"#utility.yul\":5094:5161   */\n      tag_129\n        /* \"#utility.yul\":5158:5160   */\n      0x16\n        /* \"#utility.yul\":5153:5156   */\n      dup4\n        /* \"#utility.yul\":5094:5161   */\n      tag_66\n      jump\t// in\n    tag_129:\n        /* \"#utility.yul\":5087:5161   */\n      swap2\n      pop\n        /* \"#utility.yul\":5170:5263   */\n      tag_130\n        /* \"#utility.yul\":5259:5262   */\n      dup3\n        /* \"#utility.yul\":5170:5263   */\n      tag_67\n      jump\t// in\n    tag_130:\n        /* \"#utility.yul\":5288:5290   */\n      0x20\n        /* \"#utility.yul\":5283:5286   */\n      dup3\n        /* \"#utility.yul\":5279:5291   */\n      add\n        /* \"#utility.yul\":5272:5291   */\n      swap1\n      pop\n        /* \"#utility.yul\":4931:5297   */\n      swap2\n      swap1\n      pop\n      jump\t// out\n        /* \"#utility.yul\":5303:5722   */\n    tag_49:\n        /* \"#utility.yul\":5469:5473   */\n      0x00\n        /* \"#utility.yul\":5507:5509   */\n      0x20\n        /* \"#utility.yul\":5496:5505   */\n      dup3\n        /* \"#utility.yul\":5492:5510   */\n      add\n        /* \"#utility.yul\":5484:5510   */\n      swap1\n      pop\n        /* \"#utility.yul\":5556:5565   */\n      dup2\n        /* \"#utility.yul\":5550:5554   */\n      dup2\n        /* \"#utility.yul\":5546:5566   */\n      sub\n        /* \"#utility.yul\":5542:5543   */\n      0x00\n        /* \"#utility.yul\":5531:5540   */\n      dup4\n        /* \"#utility.yul\":5527:5544   */\n      add\n        /* \"#utility.yul\":5520:5567   */\n      mstore\n        /* \"#utility.yul\":5584:5715   */\n      tag_132\n        /* \"#utility.yul\":5710:5714   */\n      dup2\n        /* \"#utility.yul\":5584:5715   */\n      tag_68\n      jump\t// in\n    tag_132:\n        /* \"#utility.yul\":5576:5715   */\n      swap1\n      pop\n        /* \"#utility.yul\":5303:5722   */\n      swap2\n      swap1\n      pop\n      jump\t// out\n\n    auxdata: 0xa264697066735822122092825e04f20c77a21f33a8b71c196da21bf436aa9aad5d89f3d430ca39bc13e764736f6c634300081a0033\n}\n",
				"bytecode": {
					"linkReferences": {},
					"object": "6080604052674563918244f400005f553480156019575f80fd5b506105f3806100275f395ff3fe608060405260043610610049575f3560e01c8063098de8201461004d5780630d8e6e2c1461007757806398d5fdca146100a1578063a4115c2a146100cb578063b60d428814610107575b5f80fd5b348015610058575f80fd5b50610061610111565b60405161006e91906102e0565b60405180910390f35b348015610082575f80fd5b5061008b610116565b60405161009891906102e0565b60405180910390f35b3480156100ac575f80fd5b506100b561019d565b6040516100c291906102e0565b60405180910390f35b3480156100d6575f80fd5b506100f160048036038101906100ec9190610327565b610242565b6040516100fe91906102e0565b60405180910390f35b61010f61027a565b005b5f5481565b5f73694aa1769357215de4fac081bf1f309adc32530673ffffffffffffffffffffffffffffffffffffffff166354fd4d506040518163ffffffff1660e01b8152600401602060405180830381865afa158015610174573d5f803e3d5ffd5b505050506040513d601f19601f820116820180604052508101906101989190610366565b905090565b5f8073694aa1769357215de4fac081bf1f309adc32530690505f8173ffffffffffffffffffffffffffffffffffffffff1663feaf968c6040518163ffffffff1660e01b815260040160a060405180830381865afa158015610200573d5f803e3d5ffd5b505050506040513d601f19601f820116820180604052508101906102249190610403565b5050509150506402540be4008161023b91906104a7565b9250505090565b5f8061024c61019d565b90505f670de0b6b3a7640000848361026491906104a7565b61026e9190610515565b90508092505050919050565b5f5461028534610242565b10156102c6576040517f08c379a00000000000000000000000000000000000000000000000000000000081526004016102bd9061059f565b60405180910390fd5b565b5f819050919050565b6102da816102c8565b82525050565b5f6020820190506102f35f8301846102d1565b92915050565b5f80fd5b610306816102c8565b8114610310575f80fd5b50565b5f81359050610321816102fd565b92915050565b5f6020828403121561033c5761033b6102f9565b5b5f61034984828501610313565b91505092915050565b5f81519050610360816102fd565b92915050565b5f6020828403121561037b5761037a6102f9565b5b5f61038884828501610352565b91505092915050565b5f69ffffffffffffffffffff82169050919050565b6103af81610391565b81146103b9575f80fd5b50565b5f815190506103ca816103a6565b92915050565b5f819050919050565b6103e2816103d0565b81146103ec575f80fd5b50565b5f815190506103fd816103d9565b92915050565b5f805f805f60a0868803121561041c5761041b6102f9565b5b5f610429888289016103bc565b955050602061043a888289016103ef565b945050604061044b88828901610352565b935050606061045c88828901610352565b925050608061046d888289016103bc565b9150509295509295909350565b7f4e487b71000000000000000000000000000000000000000000000000000000005f52601160045260245ffd5b5f6104b1826102c8565b91506104bc836102c8565b92508282026104ca816102c8565b915082820484148315176104e1576104e061047a565b5b5092915050565b7f4e487b71000000000000000000000000000000000000000000000000000000005f52601260045260245ffd5b5f61051f826102c8565b915061052a836102c8565b92508261053a576105396104e8565b5b828204905092915050565b5f82825260208201905092915050565b7f6469646e27742073656e6420656e6f75676820455448000000000000000000005f82015250565b5f610589601683610545565b915061059482610555565b602082019050919050565b5f6020820190508181035f8301526105b68161057d565b905091905056fea264697066735822122092825e04f20c77a21f33a8b71c196da21bf436aa9aad5d89f3d430ca39bc13e764736f6c634300081a0033",
					"opcodes": "PUSH1 0x80 PUSH1 0x40 MSTORE PUSH8 0x4563918244F40000 PUSH0 SSTORE CALLVALUE DUP1 ISZERO PUSH1 0x19 JUMPI PUSH0 DUP1 REVERT JUMPDEST POP PUSH2 0x5F3 DUP1 PUSH2 0x27 PUSH0 CODECOPY PUSH0 RETURN INVALID PUSH1 0x80 PUSH1 0x40 MSTORE PUSH1 0x4 CALLDATASIZE LT PUSH2 0x49 JUMPI PUSH0 CALLDATALOAD PUSH1 0xE0 SHR DUP1 PUSH4 0x98DE820 EQ PUSH2 0x4D JUMPI DUP1 PUSH4 0xD8E6E2C EQ PUSH2 0x77 JUMPI DUP1 PUSH4 0x98D5FDCA EQ PUSH2 0xA1 JUMPI DUP1 PUSH4 0xA4115C2A EQ PUSH2 0xCB JUMPI DUP1 PUSH4 0xB60D4288 EQ PUSH2 0x107 JUMPI JUMPDEST PUSH0 DUP1 REVERT JUMPDEST CALLVALUE DUP1 ISZERO PUSH2 0x58 JUMPI PUSH0 DUP1 REVERT JUMPDEST POP PUSH2 0x61 PUSH2 0x111 JUMP JUMPDEST PUSH1 0x40 MLOAD PUSH2 0x6E SWAP2 SWAP1 PUSH2 0x2E0 JUMP JUMPDEST PUSH1 0x40 MLOAD DUP1 SWAP2 SUB SWAP1 RETURN JUMPDEST CALLVALUE DUP1 ISZERO PUSH2 0x82 JUMPI PUSH0 DUP1 REVERT JUMPDEST POP PUSH2 0x8B PUSH2 0x116 JUMP JUMPDEST PUSH1 0x40 MLOAD PUSH2 0x98 SWAP2 SWAP1 PUSH2 0x2E0 JUMP JUMPDEST PUSH1 0x40 MLOAD DUP1 SWAP2 SUB SWAP1 RETURN JUMPDEST CALLVALUE DUP1 ISZERO PUSH2 0xAC JUMPI PUSH0 DUP1 REVERT JUMPDEST POP PUSH2 0xB5 PUSH2 0x19D JUMP JUMPDEST PUSH1 0x40 MLOAD PUSH2 0xC2 SWAP2 SWAP1 PUSH2 0x2E0 JUMP JUMPDEST PUSH1 0x40 MLOAD DUP1 SWAP2 SUB SWAP1 RETURN JUMPDEST CALLVALUE DUP1 ISZERO PUSH2 0xD6 JUMPI PUSH0 DUP1 REVERT JUMPDEST POP PUSH2 0xF1 PUSH1 0x4 DUP1 CALLDATASIZE SUB DUP2 ADD SWAP1 PUSH2 0xEC SWAP2 SWAP1 PUSH2 0x327 JUMP JUMPDEST PUSH2 0x242 JUMP JUMPDEST PUSH1 0x40 MLOAD PUSH2 0xFE SWAP2 SWAP1 PUSH2 0x2E0 JUMP JUMPDEST PUSH1 0x40 MLOAD DUP1 SWAP2 SUB SWAP1 RETURN JUMPDEST PUSH2 0x10F PUSH2 0x27A JUMP JUMPDEST STOP JUMPDEST PUSH0 SLOAD DUP2 JUMP JUMPDEST PUSH0 PUSH20 0x694AA1769357215DE4FAC081BF1F309ADC325306 PUSH20 0xFFFFFFFFFFFFFFFFFFFFFFFFFFFFFFFFFFFFFFFF AND PUSH4 0x54FD4D50 PUSH1 0x40 MLOAD DUP2 PUSH4 0xFFFFFFFF AND PUSH1 0xE0 SHL DUP2 MSTORE PUSH1 0x4 ADD PUSH1 0x20 PUSH1 0x40 MLOAD DUP1 DUP4 SUB DUP2 DUP7 GAS STATICCALL ISZERO DUP1 ISZERO PUSH2 0x174 JUMPI RETURNDATASIZE PUSH0 DUP1 RETURNDATACOPY RETURNDATASIZE PUSH0 REVERT JUMPDEST POP POP POP POP PUSH1 0x40 MLOAD RETURNDATASIZE PUSH1 0x1F NOT PUSH1 0x1F DUP3 ADD AND DUP3 ADD DUP1 PUSH1 0x40 MSTORE POP DUP2 ADD SWAP1 PUSH2 0x198 SWAP2 SWAP1 PUSH2 0x366 JUMP JUMPDEST SWAP1 POP SWAP1 JUMP JUMPDEST PUSH0 DUP1 PUSH20 0x694AA1769357215DE4FAC081BF1F309ADC325306 SWAP1 POP PUSH0 DUP2 PUSH20 0xFFFFFFFFFFFFFFFFFFFFFFFFFFFFFFFFFFFFFFFF AND PUSH4 0xFEAF968C PUSH1 0x40 MLOAD DUP2 PUSH4 0xFFFFFFFF AND PUSH1 0xE0 SHL DUP2 MSTORE PUSH1 0x4 ADD PUSH1 0xA0 PUSH1 0x40 MLOAD DUP1 DUP4 SUB DUP2 DUP7 GAS STATICCALL ISZERO DUP1 ISZERO PUSH2 0x200 JUMPI RETURNDATASIZE PUSH0 DUP1 RETURNDATACOPY RETURNDATASIZE PUSH0 REVERT JUMPDEST POP POP POP POP PUSH1 0x40 MLOAD RETURNDATASIZE PUSH1 0x1F NOT PUSH1 0x1F DUP3 ADD AND DUP3 ADD DUP1 PUSH1 0x40 MSTORE POP DUP2 ADD SWAP1 PUSH2 0x224 SWAP2 SWAP1 PUSH2 0x403 JUMP JUMPDEST POP POP POP SWAP2 POP POP PUSH5 0x2540BE400 DUP2 PUSH2 0x23B SWAP2 SWAP1 PUSH2 0x4A7 JUMP JUMPDEST SWAP3 POP POP POP SWAP1 JUMP JUMPDEST PUSH0 DUP1 PUSH2 0x24C PUSH2 0x19D JUMP JUMPDEST SWAP1 POP PUSH0 PUSH8 0xDE0B6B3A7640000 DUP5 DUP4 PUSH2 0x264 SWAP2 SWAP1 PUSH2 0x4A7 JUMP JUMPDEST PUSH2 0x26E SWAP2 SWAP1 PUSH2 0x515 JUMP JUMPDEST SWAP1 POP DUP1 SWAP3 POP POP POP SWAP2 SWAP1 POP JUMP JUMPDEST PUSH0 SLOAD PUSH2 0x285 CALLVALUE PUSH2 0x242 JUMP JUMPDEST LT ISZERO PUSH2 0x2C6 JUMPI PUSH1 0x40 MLOAD PUSH32 0x8C379A000000000000000000000000000000000000000000000000000000000 DUP2 MSTORE PUSH1 0x4 ADD PUSH2 0x2BD SWAP1 PUSH2 0x59F JUMP JUMPDEST PUSH1 0x40 MLOAD DUP1 SWAP2 SUB SWAP1 REVERT JUMPDEST JUMP JUMPDEST PUSH0 DUP2 SWAP1 POP SWAP2 SWAP1 POP JUMP JUMPDEST PUSH2 0x2DA DUP2 PUSH2 0x2C8 JUMP JUMPDEST DUP3 MSTORE POP POP JUMP JUMPDEST PUSH0 PUSH1 0x20 DUP3 ADD SWAP1 POP PUSH2 0x2F3 PUSH0 DUP4 ADD DUP5 PUSH2 0x2D1 JUMP JUMPDEST SWAP3 SWAP2 POP POP JUMP JUMPDEST PUSH0 DUP1 REVERT JUMPDEST PUSH2 0x306 DUP2 PUSH2 0x2C8 JUMP JUMPDEST DUP2 EQ PUSH2 0x310 JUMPI PUSH0 DUP1 REVERT JUMPDEST POP JUMP JUMPDEST PUSH0 DUP2 CALLDATALOAD SWAP1 POP PUSH2 0x321 DUP2 PUSH2 0x2FD JUMP JUMPDEST SWAP3 SWAP2 POP POP JUMP JUMPDEST PUSH0 PUSH1 0x20 DUP3 DUP5 SUB SLT ISZERO PUSH2 0x33C JUMPI PUSH2 0x33B PUSH2 0x2F9 JUMP JUMPDEST JUMPDEST PUSH0 PUSH2 0x349 DUP5 DUP3 DUP6 ADD PUSH2 0x313 JUMP JUMPDEST SWAP2 POP POP SWAP3 SWAP2 POP POP JUMP JUMPDEST PUSH0 DUP2 MLOAD SWAP1 POP PUSH2 0x360 DUP2 PUSH2 0x2FD JUMP JUMPDEST SWAP3 SWAP2 POP POP JUMP JUMPDEST PUSH0 PUSH1 0x20 DUP3 DUP5 SUB SLT ISZERO PUSH2 0x37B JUMPI PUSH2 0x37A PUSH2 0x2F9 JUMP JUMPDEST JUMPDEST PUSH0 PUSH2 0x388 DUP5 DUP3 DUP6 ADD PUSH2 0x352 JUMP JUMPDEST SWAP2 POP POP SWAP3 SWAP2 POP POP JUMP JUMPDEST PUSH0 PUSH10 0xFFFFFFFFFFFFFFFFFFFF DUP3 AND SWAP1 POP SWAP2 SWAP1 POP JUMP JUMPDEST PUSH2 0x3AF DUP2 PUSH2 0x391 JUMP JUMPDEST DUP2 EQ PUSH2 0x3B9 JUMPI PUSH0 DUP1 REVERT JUMPDEST POP JUMP JUMPDEST PUSH0 DUP2 MLOAD SWAP1 POP PUSH2 0x3CA DUP2 PUSH2 0x3A6 JUMP JUMPDEST SWAP3 SWAP2 POP POP JUMP JUMPDEST PUSH0 DUP2 SWAP1 POP SWAP2 SWAP1 POP JUMP JUMPDEST PUSH2 0x3E2 DUP2 PUSH2 0x3D0 JUMP JUMPDEST DUP2 EQ PUSH2 0x3EC JUMPI PUSH0 DUP1 REVERT JUMPDEST POP JUMP JUMPDEST PUSH0 DUP2 MLOAD SWAP1 POP PUSH2 0x3FD DUP2 PUSH2 0x3D9 JUMP JUMPDEST SWAP3 SWAP2 POP POP JUMP JUMPDEST PUSH0 DUP1 PUSH0 DUP1 PUSH0 PUSH1 0xA0 DUP7 DUP9 SUB SLT ISZERO PUSH2 0x41C JUMPI PUSH2 0x41B PUSH2 0x2F9 JUMP JUMPDEST JUMPDEST PUSH0 PUSH2 0x429 DUP9 DUP3 DUP10 ADD PUSH2 0x3BC JUMP JUMPDEST SWAP6 POP POP PUSH1 0x20 PUSH2 0x43A DUP9 DUP3 DUP10 ADD PUSH2 0x3EF JUMP JUMPDEST SWAP5 POP POP PUSH1 0x40 PUSH2 0x44B DUP9 DUP3 DUP10 ADD PUSH2 0x352 JUMP JUMPDEST SWAP4 POP POP PUSH1 0x60 PUSH2 0x45C DUP9 DUP3 DUP10 ADD PUSH2 0x352 JUMP JUMPDEST SWAP3 POP POP PUSH1 0x80 PUSH2 0x46D DUP9 DUP3 DUP10 ADD PUSH2 0x3BC JUMP JUMPDEST SWAP2 POP POP SWAP3 SWAP6 POP SWAP3 SWAP6 SWAP1 SWAP4 POP JUMP JUMPDEST PUSH32 0x4E487B7100000000000000000000000000000000000000000000000000000000 PUSH0 MSTORE PUSH1 0x11 PUSH1 0x4 MSTORE PUSH1 0x24 PUSH0 REVERT JUMPDEST PUSH0 PUSH2 0x4B1 DUP3 PUSH2 0x2C8 JUMP JUMPDEST SWAP2 POP PUSH2 0x4BC DUP4 PUSH2 0x2C8 JUMP JUMPDEST SWAP3 POP DUP3 DUP3 MUL PUSH2 0x4CA DUP2 PUSH2 0x2C8 JUMP JUMPDEST SWAP2 POP DUP3 DUP3 DIV DUP5 EQ DUP4 ISZERO OR PUSH2 0x4E1 JUMPI PUSH2 0x4E0 PUSH2 0x47A JUMP JUMPDEST JUMPDEST POP SWAP3 SWAP2 POP POP JUMP JUMPDEST PUSH32 0x4E487B7100000000000000000000000000000000000000000000000000000000 PUSH0 MSTORE PUSH1 0x12 PUSH1 0x4 MSTORE PUSH1 0x24 PUSH0 REVERT JUMPDEST PUSH0 PUSH2 0x51F DUP3 PUSH2 0x2C8 JUMP JUMPDEST SWAP2 POP PUSH2 0x52A DUP4 PUSH2 0x2C8 JUMP JUMPDEST SWAP3 POP DUP3 PUSH2 0x53A JUMPI PUSH2 0x539 PUSH2 0x4E8 JUMP JUMPDEST JUMPDEST DUP3 DUP3 DIV SWAP1 POP SWAP3 SWAP2 POP POP JUMP JUMPDEST PUSH0 DUP3 DUP3 MSTORE PUSH1 0x20 DUP3 ADD SWAP1 POP SWAP3 SWAP2 POP POP JUMP JUMPDEST PUSH32 0x6469646E27742073656E6420656E6F7567682045544800000000000000000000 PUSH0 DUP3 ADD MSTORE POP JUMP JUMPDEST PUSH0 PUSH2 0x589 PUSH1 0x16 DUP4 PUSH2 0x545 JUMP JUMPDEST SWAP2 POP PUSH2 0x594 DUP3 PUSH2 0x555 JUMP JUMPDEST PUSH1 0x20 DUP3 ADD SWAP1 POP SWAP2 SWAP1 POP JUMP JUMPDEST PUSH0 PUSH1 0x20 DUP3 ADD SWAP1 POP DUP2 DUP2 SUB PUSH0 DUP4 ADD MSTORE PUSH2 0x5B6 DUP2 PUSH2 0x57D JUMP JUMPDEST SWAP1 POP SWAP2 SWAP1 POP JUMP INVALID LOG2 PUSH5 0x6970667358 0x22 SLT KECCAK256 SWAP3 DUP3 MCOPY DIV CALLCODE 0xC PUSH24 0xA21F33A8B71C196DA21BF436AA9AAD5D89F3D430CA39BC13 0xE7 PUSH5 0x736F6C6343 STOP ADDMOD BYTE STOP CALLER "
				},
				"gasEstimates": {
					"creation": {
						"codeDepositCost": "304600",
						"executionCost": "22446",
						"totalCost": "327046"
					},
					"external": {
						"fund()": "infinite",
						"getConverstionRate(uint256)": "infinite",
						"getPrice()": "infinite",
						"getVersion()": "infinite",
						"minimumUsd()": "2402"
					}
				},
				"methodIdentifiers": {
					"fund()": "b60d4288",
					"getConverstionRate(uint256)": "a4115c2a",
					"getPrice()": "98d5fdca",
					"getVersion()": "0d8e6e2c",
					"minimumUsd()": "098de820"
				}
			},
			"storageLayout": {
				"storage": [
					{
						"astId": 52,
						"contract": "Solidity/FundMe.sol:FundMe",
						"label": "minimumUsd",
						"offset": 0,
						"slot": "0",
						"type": "t_uint256"
					}
				],
				"types": {
					"t_uint256": {
						"encoding": "inplace",
						"label": "uint256",
						"numberOfBytes": "32"
					}
				}
			},
			"userdoc": {
				"kind": "user",
				"methods": {},
				"version": 1
			}
		}
	}
}