{
	"Solidity/FundMe.sol": {
		"FundMe": {
			"abi": [
				{
					"inputs": [],
					"stateMutability": "nonpayable",
					"type": "constructor"
				},
				{
					"inputs": [],
					"name": "NotEnoughETH",
					"type": "error"
				},
				{
					"inputs": [],
					"name": "WithdrawalFailed",
					"type": "error"
				},
				{
					"stateMutability": "payable",
					"type": "fallback"
				},
				{
					"inputs": [],
					"name": "MINIMUM_USD",
					"outputs": [
						{
							"internalType": "uint256",
							"name": "",
							"type": "uint256"
						}
					],
					"stateMutability": "view",
					"type": "function"
				},
				{
					"inputs": [
						{
							"internalType": "address",
							"name": "funder",
							"type": "address"
						}
					],
					"name": "addressToAmountFunded",
					"outputs": [
						{
							"internalType": "uint256",
							"name": "amountFunded",
							"type": "uint256"
						}
					],
					"stateMutability": "view",
					"type": "function"
				},
				{
					"inputs": [],
					"name": "fund",
					"outputs": [],
					"stateMutability": "payable",
					"type": "function"
				},
				{
					"inputs": [
						{
							"internalType": "uint256",
							"name": "",
							"type": "uint256"
						}
					],
					"name": "funders",
					"outputs": [
						{
							"internalType": "address",
							"name": "",
							"type": "address"
						}
					],
					"stateMutability": "view",
					"type": "function"
				},
				{
					"inputs": [],
					"name": "i_owner",
					"outputs": [
						{
							"internalType": "address",
							"name": "",
							"type": "address"
						}
					],
					"stateMutability": "view",
					"type": "function"
				},
				{
					"inputs": [],
					"name": "withdrawal",
					"outputs": [],
					"stateMutability": "nonpayable",
					"type": "function"
				},
				{
					"stateMutability": "payable",
					"type": "receive"
				}
			],
			"devdoc": {
				"kind": "dev",
				"methods": {},
				"version": 1
			},
			"evm": {
				"assembly": "    /* \"Solidity/FundMe.sol\":402:2686  contract FundMe {... */\n  mstore(0x40, 0xa0)\n    /* \"Solidity/FundMe.sol\":736:871  constructor() {... */\n  callvalue\n  dup1\n  iszero\n  tag_1\n  jumpi\n  0x00\n  dup1\n  revert\ntag_1:\n  pop\n    /* \"Solidity/FundMe.sol\":854:864  msg.sender */\n  caller\n    /* \"Solidity/FundMe.sol\":844:864  i_owner = msg.sender */\n  0xffffffffffffffffffffffffffffffffffffffff\n  and\n  0x80\n  dup2\n  0xffffffffffffffffffffffffffffffffffffffff\n  and\n  dup2\n  mstore\n  pop\n  pop\n    /* \"Solidity/FundMe.sol\":402:2686  contract FundMe {... */\n  mload(0x80)\n  codecopy(0x00, dataOffset(sub_0), dataSize(sub_0))\n  0x00\n  assignImmutable(\"0xcdbc23227c72e0a3f4683bdbccfcbed38047ca1a70d48b78c210dc5393029019\")\n  return(0x00, dataSize(sub_0))\nstop\n\nsub_0: assembly {\n        /* \"Solidity/FundMe.sol\":402:2686  contract FundMe {... */\n      mstore(0x40, 0x80)\n      jumpi(tag_1, lt(calldatasize, 0x04))\n      shr(0xe0, calldataload(0x00))\n      dup1\n      0x3e47d6f3\n      eq\n      tag_3\n      jumpi\n      dup1\n      0x6b69a592\n      eq\n      tag_4\n      jumpi\n      dup1\n      0xb60d4288\n      eq\n      tag_5\n      jumpi\n      dup1\n      0xd4e93292\n      eq\n      tag_6\n      jumpi\n      dup1\n      0xdba6335f\n      eq\n      tag_7\n      jumpi\n      dup1\n      0xdc0d3dff\n      eq\n      tag_8\n      jumpi\n      jump(tag_2)\n    tag_1:\n      jumpi(tag_2, calldatasize)\n        /* \"Solidity/FundMe.sol\":2614:2620  fund() */\n      tag_11\n        /* \"Solidity/FundMe.sol\":2614:2618  fund */\n      tag_12\n        /* \"Solidity/FundMe.sol\":2614:2620  fund() */\n      jump\t// in\n    tag_11:\n        /* \"Solidity/FundMe.sol\":402:2686  contract FundMe {... */\n      stop\n    tag_2:\n        /* \"Solidity/FundMe.sol\":2671:2677  fund() */\n      tag_15\n        /* \"Solidity/FundMe.sol\":2671:2675  fund */\n      tag_12\n        /* \"Solidity/FundMe.sol\":2671:2677  fund() */\n      jump\t// in\n    tag_15:\n        /* \"Solidity/FundMe.sol\":402:2686  contract FundMe {... */\n      stop\n        /* \"Solidity/FundMe.sol\":554:630  mapping(address funder => uint256 amountFunded) public addressToAmountFunded */\n    tag_3:\n      callvalue\n      dup1\n      iszero\n      tag_16\n      jumpi\n      0x00\n      dup1\n      revert\n    tag_16:\n      pop\n      tag_17\n      0x04\n      dup1\n      calldatasize\n      sub\n      dup2\n      add\n      swap1\n      tag_18\n      swap2\n      swap1\n      tag_19\n      jump\t// in\n    tag_18:\n      tag_20\n      jump\t// in\n    tag_17:\n      mload(0x40)\n      tag_21\n      swap2\n      swap1\n      tag_22\n      jump\t// in\n    tag_21:\n      mload(0x40)\n      dup1\n      swap2\n      sub\n      swap1\n      return\n        /* \"Solidity/FundMe.sol\":463:505  uint256 public constant MINIMUM_USD = 5e18 */\n    tag_4:\n      callvalue\n      dup1\n      iszero\n      tag_23\n      jumpi\n      0x00\n      dup1\n      revert\n    tag_23:\n      pop\n      tag_24\n      tag_25\n      jump\t// in\n    tag_24:\n      mload(0x40)\n      tag_26\n      swap2\n      swap1\n      tag_22\n      jump\t// in\n    tag_26:\n      mload(0x40)\n      dup1\n      swap2\n      sub\n      swap1\n      return\n        /* \"Solidity/FundMe.sol\":877:1443  function fund () public payable {... */\n    tag_5:\n      tag_27\n      tag_12\n      jump\t// in\n    tag_27:\n      stop\n        /* \"Solidity/FundMe.sol\":1449:2406  function withdrawal () public {... */\n    tag_6:\n      callvalue\n      dup1\n      iszero\n      tag_28\n      jumpi\n      0x00\n      dup1\n      revert\n    tag_28:\n      pop\n      tag_29\n      tag_30\n      jump\t// in\n    tag_29:\n      stop\n        /* \"Solidity/FundMe.sol\":637:669  address public immutable i_owner */\n    tag_7:\n      callvalue\n      dup1\n      iszero\n      tag_31\n      jumpi\n      0x00\n      dup1\n      revert\n    tag_31:\n      pop\n      tag_32\n      tag_33\n      jump\t// in\n    tag_32:\n      mload(0x40)\n      tag_34\n      swap2\n      swap1\n      tag_35\n      jump\t// in\n    tag_34:\n      mload(0x40)\n      dup1\n      swap2\n      sub\n      swap1\n      return\n        /* \"Solidity/FundMe.sol\":524:548  address[] public funders */\n    tag_8:\n      callvalue\n      dup1\n      iszero\n      tag_36\n      jumpi\n      0x00\n      dup1\n      revert\n    tag_36:\n      pop\n      tag_37\n      0x04\n      dup1\n      calldatasize\n      sub\n      dup2\n      add\n      swap1\n      tag_38\n      swap2\n      swap1\n      tag_39\n      jump\t// in\n    tag_38:\n      tag_40\n      jump\t// in\n    tag_37:\n      mload(0x40)\n      tag_41\n      swap2\n      swap1\n      tag_35\n      jump\t// in\n    tag_41:\n      mload(0x40)\n      dup1\n      swap2\n      sub\n      swap1\n      return\n        /* \"Solidity/FundMe.sol\":877:1443  function fund () public payable {... */\n    tag_12:\n        /* \"Solidity/FundMe.sol\":501:505  5e18 */\n      0x4563918244f40000\n        /* \"Solidity/FundMe.sol\":1044:1074  msg.value.getConverstionRate() */\n      tag_43\n        /* \"Solidity/FundMe.sol\":1044:1053  msg.value */\n      callvalue\n        /* \"Solidity/FundMe.sol\":1044:1072  msg.value.getConverstionRate */\n      tag_44\n        /* \"Solidity/FundMe.sol\":1044:1074  msg.value.getConverstionRate() */\n      jump\t// in\n    tag_43:\n        /* \"Solidity/FundMe.sol\":1044:1088  msg.value.getConverstionRate() < MINIMUM_USD */\n      lt\n        /* \"Solidity/FundMe.sol\":1041:1135  if(msg.value.getConverstionRate() < MINIMUM_USD){... */\n      iszero\n      tag_45\n      jumpi\n        /* \"Solidity/FundMe.sol\":1110:1124  NotEnoughETH() */\n      mload(0x40)\n      0x583aa02600000000000000000000000000000000000000000000000000000000\n      dup2\n      mstore\n      0x04\n      add\n      mload(0x40)\n      dup1\n      swap2\n      sub\n      swap1\n      revert\n        /* \"Solidity/FundMe.sol\":1041:1135  if(msg.value.getConverstionRate() < MINIMUM_USD){... */\n    tag_45:\n        /* \"Solidity/FundMe.sol\":1237:1244  funders */\n      0x00\n        /* \"Solidity/FundMe.sol\":1250:1260  msg.sender */\n      caller\n        /* \"Solidity/FundMe.sol\":1237:1261  funders.push(msg.sender) */\n      swap1\n      dup1\n      0x01\n      dup2\n      sload\n      add\n      dup1\n      dup3\n      sstore\n      dup1\n      swap2\n      pop\n      pop\n      0x01\n      swap1\n      sub\n      swap1\n      0x00\n      mstore\n      keccak256(0x00, 0x20)\n      add\n      0x00\n      swap1\n      swap2\n      swap1\n      swap2\n      swap1\n      swap2\n      0x0100\n      exp\n      dup2\n      sload\n      dup2\n      0xffffffffffffffffffffffffffffffffffffffff\n      mul\n      not\n      and\n      swap1\n      dup4\n      0xffffffffffffffffffffffffffffffffffffffff\n      and\n      mul\n      or\n      swap1\n      sstore\n      pop\n        /* \"Solidity/FundMe.sol\":1308:1317  msg.value */\n      callvalue\n        /* \"Solidity/FundMe.sol\":1271:1292  addressToAmountFunded */\n      0x01\n        /* \"Solidity/FundMe.sol\":1271:1304  addressToAmountFunded[msg.sender] */\n      0x00\n        /* \"Solidity/FundMe.sol\":1293:1303  msg.sender */\n      caller\n        /* \"Solidity/FundMe.sol\":1271:1304  addressToAmountFunded[msg.sender] */\n      0xffffffffffffffffffffffffffffffffffffffff\n      and\n      0xffffffffffffffffffffffffffffffffffffffff\n      and\n      dup2\n      mstore\n      0x20\n      add\n      swap1\n      dup2\n      mstore\n      0x20\n      add\n      0x00\n      keccak256\n      0x00\n        /* \"Solidity/FundMe.sol\":1271:1317  addressToAmountFunded[msg.sender] += msg.value */\n      dup3\n      dup3\n      sload\n      tag_47\n      swap2\n      swap1\n      tag_48\n      jump\t// in\n    tag_47:\n      swap3\n      pop\n      pop\n      dup2\n      swap1\n      sstore\n      pop\n        /* \"Solidity/FundMe.sol\":877:1443  function fund () public payable {... */\n      jump\t// out\n        /* \"Solidity/FundMe.sol\":554:630  mapping(address funder => uint256 amountFunded) public addressToAmountFunded */\n    tag_20:\n      mstore(0x20, 0x01)\n      dup1\n      0x00\n      mstore\n      keccak256(0x00, 0x40)\n      0x00\n      swap2\n      pop\n      swap1\n      pop\n      sload\n      dup2\n      jump\t// out\n        /* \"Solidity/FundMe.sol\":463:505  uint256 public constant MINIMUM_USD = 5e18 */\n    tag_25:\n        /* \"Solidity/FundMe.sol\":501:505  5e18 */\n      0x4563918244f40000\n        /* \"Solidity/FundMe.sol\":463:505  uint256 public constant MINIMUM_USD = 5e18 */\n      dup2\n      jump\t// out\n        /* \"Solidity/FundMe.sol\":1449:2406  function withdrawal () public {... */\n    tag_30:\n        /* \"Solidity/FundMe.sol\":1642:1661  uint256 funderIndex */\n      0x00\n        /* \"Solidity/FundMe.sol\":1638:1821  for(uint256 funderIndex = 0; funderIndex < funders.length; funderIndex++) {... */\n    tag_50:\n        /* \"Solidity/FundMe.sol\":1681:1688  funders */\n      0x00\n        /* \"Solidity/FundMe.sol\":1681:1695  funders.length */\n      dup1\n      sload\n      swap1\n      pop\n        /* \"Solidity/FundMe.sol\":1667:1678  funderIndex */\n      dup2\n        /* \"Solidity/FundMe.sol\":1667:1695  funderIndex < funders.length */\n      lt\n        /* \"Solidity/FundMe.sol\":1638:1821  for(uint256 funderIndex = 0; funderIndex < funders.length; funderIndex++) {... */\n      iszero\n      tag_51\n      jumpi\n        /* \"Solidity/FundMe.sol\":1726:1740  address funder */\n      0x00\n        /* \"Solidity/FundMe.sol\":1743:1750  funders */\n      dup1\n        /* \"Solidity/FundMe.sol\":1751:1762  funderIndex */\n      dup3\n        /* \"Solidity/FundMe.sol\":1743:1763  funders[funderIndex] */\n      dup2\n      sload\n      dup2\n      lt\n      tag_53\n      jumpi\n      tag_54\n      tag_55\n      jump\t// in\n    tag_54:\n    tag_53:\n      swap1\n      0x00\n      mstore\n      keccak256(0x00, 0x20)\n      add\n      0x00\n      swap1\n      sload\n      swap1\n      0x0100\n      exp\n      swap1\n      div\n      0xffffffffffffffffffffffffffffffffffffffff\n      and\n        /* \"Solidity/FundMe.sol\":1726:1763  address funder = funders[funderIndex] */\n      swap1\n      pop\n        /* \"Solidity/FundMe.sol\":1809:1810  0 */\n      0x00\n        /* \"Solidity/FundMe.sol\":1777:1798  addressToAmountFunded */\n      0x01\n        /* \"Solidity/FundMe.sol\":1777:1806  addressToAmountFunded[funder] */\n      0x00\n        /* \"Solidity/FundMe.sol\":1799:1805  funder */\n      dup4\n        /* \"Solidity/FundMe.sol\":1777:1806  addressToAmountFunded[funder] */\n      0xffffffffffffffffffffffffffffffffffffffff\n      and\n      0xffffffffffffffffffffffffffffffffffffffff\n      and\n      dup2\n      mstore\n      0x20\n      add\n      swap1\n      dup2\n      mstore\n      0x20\n      add\n      0x00\n      keccak256\n        /* \"Solidity/FundMe.sol\":1777:1810  addressToAmountFunded[funder] = 0 */\n      dup2\n      swap1\n      sstore\n      pop\n        /* \"Solidity/FundMe.sol\":1712:1821  {... */\n      pop\n        /* \"Solidity/FundMe.sol\":1697:1710  funderIndex++ */\n      dup1\n      dup1\n      0x01\n      add\n      swap2\n      pop\n      pop\n        /* \"Solidity/FundMe.sol\":1638:1821  for(uint256 funderIndex = 0; funderIndex < funders.length; funderIndex++) {... */\n      jump(tag_50)\n    tag_51:\n      pop\n        /* \"Solidity/FundMe.sol\":1881:1882  0 */\n      0x00\n        /* \"Solidity/FundMe.sol\":1867:1883  new address[](0) */\n      0xffffffffffffffff\n      dup2\n      gt\n      iszero\n      tag_57\n      jumpi\n      tag_58\n      tag_59\n      jump\t// in\n    tag_58:\n    tag_57:\n      mload(0x40)\n      swap1\n      dup1\n      dup3\n      mstore\n      dup1\n      0x20\n      mul\n      0x20\n      add\n      dup3\n      add\n      0x40\n      mstore\n      dup1\n      iszero\n      tag_60\n      jumpi\n      dup2\n      0x20\n      add\n      0x20\n      dup3\n      mul\n      dup1\n      calldatasize\n      dup4\n      calldatacopy\n      dup1\n      dup3\n      add\n      swap2\n      pop\n      pop\n      swap1\n      pop\n    tag_60:\n      pop\n        /* \"Solidity/FundMe.sol\":1857:1864  funders */\n      0x00\n        /* \"Solidity/FundMe.sol\":1857:1883  funders = new address[](0) */\n      swap1\n      dup1\n      mload\n      swap1\n      0x20\n      add\n      swap1\n      tag_61\n      swap3\n      swap2\n      swap1\n      tag_62\n      jump\t// in\n    tag_61:\n      pop\n        /* \"Solidity/FundMe.sol\":2196:2212  bool callSuccess */\n      0x00\n        /* \"Solidity/FundMe.sol\":2225:2235  msg.sender */\n      caller\n        /* \"Solidity/FundMe.sol\":2217:2241  payable(msg.sender).call */\n      0xffffffffffffffffffffffffffffffffffffffff\n      and\n        /* \"Solidity/FundMe.sol\":2249:2270  address(this).balance */\n      selfbalance\n        /* \"Solidity/FundMe.sol\":2217:2275  payable(msg.sender).call{value: address(this).balance}(\"\") */\n      mload(0x40)\n      tag_63\n      swap1\n      tag_64\n      jump\t// in\n    tag_63:\n      0x00\n      mload(0x40)\n      dup1\n      dup4\n      sub\n      dup2\n      dup6\n      dup8\n      gas\n      call\n      swap3\n      pop\n      pop\n      pop\n      returndatasize\n      dup1\n      0x00\n      dup2\n      eq\n      tag_67\n      jumpi\n      mload(0x40)\n      swap2\n      pop\n      and(add(returndatasize, 0x3f), not(0x1f))\n      dup3\n      add\n      0x40\n      mstore\n      returndatasize\n      dup3\n      mstore\n      returndatasize\n      0x00\n      0x20\n      dup5\n      add\n      returndatacopy\n      jump(tag_66)\n    tag_67:\n      0x60\n      swap2\n      pop\n    tag_66:\n      pop\n        /* \"Solidity/FundMe.sol\":2195:2275  (bool callSuccess,) = payable(msg.sender).call{value: address(this).balance}(\"\") */\n      pop\n      swap1\n      pop\n        /* \"Solidity/FundMe.sol\":2289:2300  callSuccess */\n      dup1\n        /* \"Solidity/FundMe.sol\":2285:2352  if(!callSuccess) {... */\n      tag_68\n      jumpi\n        /* \"Solidity/FundMe.sol\":2323:2341  WithdrawalFailed() */\n      mload(0x40)\n      0x27fcd9d100000000000000000000000000000000000000000000000000000000\n      dup2\n      mstore\n      0x04\n      add\n      mload(0x40)\n      dup1\n      swap2\n      sub\n      swap1\n      revert\n        /* \"Solidity/FundMe.sol\":2285:2352  if(!callSuccess) {... */\n    tag_68:\n        /* \"Solidity/FundMe.sol\":1479:2406  {... */\n      pop\n        /* \"Solidity/FundMe.sol\":1449:2406  function withdrawal () public {... */\n      jump\t// out\n        /* \"Solidity/FundMe.sol\":637:669  address public immutable i_owner */\n    tag_33:\n      immutable(\"0xcdbc23227c72e0a3f4683bdbccfcbed38047ca1a70d48b78c210dc5393029019\")\n      dup2\n      jump\t// out\n        /* \"Solidity/FundMe.sol\":524:548  address[] public funders */\n    tag_40:\n      0x00\n      dup2\n      dup2\n      sload\n      dup2\n      lt\n      tag_69\n      jumpi\n      0x00\n      dup1\n      revert\n    tag_69:\n      swap1\n      0x00\n      mstore\n      keccak256(0x00, 0x20)\n      add\n      0x00\n      swap2\n      pop\n      sload\n      swap1\n      0x0100\n      exp\n      swap1\n      div\n      0xffffffffffffffffffffffffffffffffffffffff\n      and\n      dup2\n      jump\t// out\n        /* \"Solidity/PriceConverter.sol\":580:982  function getConverstionRate(uint256 ethAmount) internal view returns(uint256){... */\n    tag_44:\n        /* \"Solidity/PriceConverter.sol\":649:656  uint256 */\n      0x00\n        /* \"Solidity/PriceConverter.sol\":753:769  uint256 ethPrice */\n      dup1\n        /* \"Solidity/PriceConverter.sol\":772:782  getPrice() */\n      tag_72\n        /* \"Solidity/PriceConverter.sol\":772:780  getPrice */\n      tag_73\n        /* \"Solidity/PriceConverter.sol\":772:782  getPrice() */\n      jump\t// in\n    tag_72:\n        /* \"Solidity/PriceConverter.sol\":753:782  uint256 ethPrice = getPrice() */\n      swap1\n      pop\n        /* \"Solidity/PriceConverter.sol\":890:912  uint256 ethAmountInUsd */\n      0x00\n        /* \"Solidity/PriceConverter.sol\":940:944  1e18 */\n      0x0de0b6b3a7640000\n        /* \"Solidity/PriceConverter.sol\":927:936  ethAmount */\n      dup5\n        /* \"Solidity/PriceConverter.sol\":916:924  ethPrice */\n      dup4\n        /* \"Solidity/PriceConverter.sol\":916:936  ethPrice * ethAmount */\n      tag_74\n      swap2\n      swap1\n      tag_75\n      jump\t// in\n    tag_74:\n        /* \"Solidity/PriceConverter.sol\":915:944  (ethPrice * ethAmount) / 1e18 */\n      tag_76\n      swap2\n      swap1\n      tag_77\n      jump\t// in\n    tag_76:\n        /* \"Solidity/PriceConverter.sol\":890:944  uint256 ethAmountInUsd = (ethPrice * ethAmount) / 1e18 */\n      swap1\n      pop\n        /* \"Solidity/PriceConverter.sol\":961:975  ethAmountInUsd */\n      dup1\n        /* \"Solidity/PriceConverter.sol\":954:975  return ethAmountInUsd */\n      swap3\n      pop\n      pop\n      pop\n        /* \"Solidity/PriceConverter.sol\":580:982  function getConverstionRate(uint256 ethAmount) internal view returns(uint256){... */\n      swap2\n      swap1\n      pop\n      jump\t// out\n        /* \"Solidity/PriceConverter.sol\":200:575  function getPrice() internal view returns(uint256) {... */\n    tag_73:\n        /* \"Solidity/PriceConverter.sol\":242:249  uint256 */\n      0x00\n        /* \"Solidity/PriceConverter.sol\":338:368  AggregatorV3Interface dataFeed */\n      dup1\n        /* \"Solidity/PriceConverter.sol\":393:435  0x694AA1769357215DE4FAC081bf1f309aDC325306 */\n      0x694aa1769357215de4fac081bf1f309adc325306\n        /* \"Solidity/PriceConverter.sol\":338:436  AggregatorV3Interface dataFeed = AggregatorV3Interface(0x694AA1769357215DE4FAC081bf1f309aDC325306) */\n      swap1\n      pop\n        /* \"Solidity/PriceConverter.sol\":448:460  int256 price */\n      0x00\n        /* \"Solidity/PriceConverter.sol\":467:475  dataFeed */\n      dup2\n        /* \"Solidity/PriceConverter.sol\":467:491  dataFeed.latestRoundData */\n      0xffffffffffffffffffffffffffffffffffffffff\n      and\n      0xfeaf968c\n        /* \"Solidity/PriceConverter.sol\":467:493  dataFeed.latestRoundData() */\n      mload(0x40)\n      dup2\n      0xffffffff\n      and\n      0xe0\n      shl\n      dup2\n      mstore\n      0x04\n      add\n      0xa0\n      mload(0x40)\n      dup1\n      dup4\n      sub\n      dup2\n      dup7\n      gas\n      staticcall\n      iszero\n      dup1\n      iszero\n      tag_80\n      jumpi\n      returndatasize\n      0x00\n      dup1\n      returndatacopy\n      revert(0x00, returndatasize)\n    tag_80:\n      pop\n      pop\n      pop\n      pop\n      mload(0x40)\n      returndatasize\n      not(0x1f)\n      0x1f\n      dup3\n      add\n      and\n      dup3\n      add\n      dup1\n      0x40\n      mstore\n      pop\n      dup2\n      add\n      swap1\n      tag_81\n      swap2\n      swap1\n      tag_82\n      jump\t// in\n    tag_81:\n        /* \"Solidity/PriceConverter.sol\":446:493  (,int256 price,,,) = dataFeed.latestRoundData() */\n      pop\n      pop\n      pop\n      swap2\n      pop\n      pop\n        /* \"Solidity/PriceConverter.sol\":564:568  1e10 */\n      0x02540be400\n        /* \"Solidity/PriceConverter.sol\":555:560  price */\n      dup2\n        /* \"Solidity/PriceConverter.sol\":547:568  uint256(price) * 1e10 */\n      tag_83\n      swap2\n      swap1\n      tag_75\n      jump\t// in\n    tag_83:\n        /* \"Solidity/PriceConverter.sol\":540:568  return uint256(price) * 1e10 */\n      swap3\n      pop\n      pop\n      pop\n        /* \"Solidity/PriceConverter.sol\":200:575  function getPrice() internal view returns(uint256) {... */\n      swap1\n      jump\t// out\n    tag_62:\n      dup3\n      dup1\n      sload\n      dup3\n      dup3\n      sstore\n      swap1\n      0x00\n      mstore\n      keccak256(0x00, 0x20)\n      swap1\n      dup2\n      add\n      swap3\n      dup3\n      iszero\n      tag_84\n      jumpi\n      swap2\n      0x20\n      mul\n      dup3\n      add\n    tag_85:\n      dup3\n      dup2\n      gt\n      iszero\n      tag_86\n      jumpi\n      dup3\n      mload\n      dup3\n      exp(0x0100, 0x00)\n      dup2\n      sload\n      dup2\n      0xffffffffffffffffffffffffffffffffffffffff\n      mul\n      not\n      and\n      swap1\n      dup4\n      0xffffffffffffffffffffffffffffffffffffffff\n      and\n      mul\n      or\n      swap1\n      sstore\n      pop\n      swap2\n      0x20\n      add\n      swap2\n      swap1\n      0x01\n      add\n      swap1\n      jump(tag_85)\n    tag_86:\n    tag_84:\n      pop\n      swap1\n      pop\n      tag_87\n      swap2\n      swap1\n      tag_88\n      jump\t// in\n    tag_87:\n      pop\n      swap1\n      jump\t// out\n    tag_88:\n    tag_89:\n      dup1\n      dup3\n      gt\n      iszero\n      tag_90\n      jumpi\n      0x00\n      dup2\n      0x00\n      swap1\n      sstore\n      pop\n      0x01\n      add\n      jump(tag_89)\n    tag_90:\n      pop\n      swap1\n      jump\t// out\n        /* \"#utility.yul\":88:205   */\n    tag_92:\n        /* \"#utility.yul\":197:198   */\n      0x00\n        /* \"#utility.yul\":194:195   */\n      dup1\n        /* \"#utility.yul\":187:199   */\n      revert\n        /* \"#utility.yul\":334:460   */\n    tag_94:\n        /* \"#utility.yul\":371:378   */\n      0x00\n        /* \"#utility.yul\":411:453   */\n      0xffffffffffffffffffffffffffffffffffffffff\n        /* \"#utility.yul\":404:409   */\n      dup3\n        /* \"#utility.yul\":400:454   */\n      and\n        /* \"#utility.yul\":389:454   */\n      swap1\n      pop\n        /* \"#utility.yul\":334:460   */\n      swap2\n      swap1\n      pop\n      jump\t// out\n        /* \"#utility.yul\":466:562   */\n    tag_95:\n        /* \"#utility.yul\":503:510   */\n      0x00\n        /* \"#utility.yul\":532:556   */\n      tag_121\n        /* \"#utility.yul\":550:555   */\n      dup3\n        /* \"#utility.yul\":532:556   */\n      tag_94\n      jump\t// in\n    tag_121:\n        /* \"#utility.yul\":521:556   */\n      swap1\n      pop\n        /* \"#utility.yul\":466:562   */\n      swap2\n      swap1\n      pop\n      jump\t// out\n        /* \"#utility.yul\":568:690   */\n    tag_96:\n        /* \"#utility.yul\":641:665   */\n      tag_123\n        /* \"#utility.yul\":659:664   */\n      dup2\n        /* \"#utility.yul\":641:665   */\n      tag_95\n      jump\t// in\n    tag_123:\n        /* \"#utility.yul\":634:639   */\n      dup2\n        /* \"#utility.yul\":631:666   */\n      eq\n        /* \"#utility.yul\":621:684   */\n      tag_124\n      jumpi\n        /* \"#utility.yul\":680:681   */\n      0x00\n        /* \"#utility.yul\":677:678   */\n      dup1\n        /* \"#utility.yul\":670:682   */\n      revert\n        /* \"#utility.yul\":621:684   */\n    tag_124:\n        /* \"#utility.yul\":568:690   */\n      pop\n      jump\t// out\n        /* \"#utility.yul\":696:835   */\n    tag_97:\n        /* \"#utility.yul\":742:747   */\n      0x00\n        /* \"#utility.yul\":780:786   */\n      dup2\n        /* \"#utility.yul\":767:787   */\n      calldataload\n        /* \"#utility.yul\":758:787   */\n      swap1\n      pop\n        /* \"#utility.yul\":796:829   */\n      tag_126\n        /* \"#utility.yul\":823:828   */\n      dup2\n        /* \"#utility.yul\":796:829   */\n      tag_96\n      jump\t// in\n    tag_126:\n        /* \"#utility.yul\":696:835   */\n      swap3\n      swap2\n      pop\n      pop\n      jump\t// out\n        /* \"#utility.yul\":841:1170   */\n    tag_19:\n        /* \"#utility.yul\":900:906   */\n      0x00\n        /* \"#utility.yul\":949:951   */\n      0x20\n        /* \"#utility.yul\":937:946   */\n      dup3\n        /* \"#utility.yul\":928:935   */\n      dup5\n        /* \"#utility.yul\":924:947   */\n      sub\n        /* \"#utility.yul\":920:952   */\n      slt\n        /* \"#utility.yul\":917:1036   */\n      iszero\n      tag_128\n      jumpi\n        /* \"#utility.yul\":955:1034   */\n      tag_129\n      tag_92\n      jump\t// in\n    tag_129:\n        /* \"#utility.yul\":917:1036   */\n    tag_128:\n        /* \"#utility.yul\":1075:1076   */\n      0x00\n        /* \"#utility.yul\":1100:1153   */\n      tag_130\n        /* \"#utility.yul\":1145:1152   */\n      dup5\n        /* \"#utility.yul\":1136:1142   */\n      dup3\n        /* \"#utility.yul\":1125:1134   */\n      dup6\n        /* \"#utility.yul\":1121:1143   */\n      add\n        /* \"#utility.yul\":1100:1153   */\n      tag_97\n      jump\t// in\n    tag_130:\n        /* \"#utility.yul\":1090:1153   */\n      swap2\n      pop\n        /* \"#utility.yul\":1046:1163   */\n      pop\n        /* \"#utility.yul\":841:1170   */\n      swap3\n      swap2\n      pop\n      pop\n      jump\t// out\n        /* \"#utility.yul\":1176:1253   */\n    tag_98:\n        /* \"#utility.yul\":1213:1220   */\n      0x00\n        /* \"#utility.yul\":1242:1247   */\n      dup2\n        /* \"#utility.yul\":1231:1247   */\n      swap1\n      pop\n        /* \"#utility.yul\":1176:1253   */\n      swap2\n      swap1\n      pop\n      jump\t// out\n        /* \"#utility.yul\":1259:1377   */\n    tag_99:\n        /* \"#utility.yul\":1346:1370   */\n      tag_133\n        /* \"#utility.yul\":1364:1369   */\n      dup2\n        /* \"#utility.yul\":1346:1370   */\n      tag_98\n      jump\t// in\n    tag_133:\n        /* \"#utility.yul\":1341:1344   */\n      dup3\n        /* \"#utility.yul\":1334:1371   */\n      mstore\n        /* \"#utility.yul\":1259:1377   */\n      pop\n      pop\n      jump\t// out\n        /* \"#utility.yul\":1383:1605   */\n    tag_22:\n        /* \"#utility.yul\":1476:1480   */\n      0x00\n        /* \"#utility.yul\":1514:1516   */\n      0x20\n        /* \"#utility.yul\":1503:1512   */\n      dup3\n        /* \"#utility.yul\":1499:1517   */\n      add\n        /* \"#utility.yul\":1491:1517   */\n      swap1\n      pop\n        /* \"#utility.yul\":1527:1598   */\n      tag_135\n        /* \"#utility.yul\":1595:1596   */\n      0x00\n        /* \"#utility.yul\":1584:1593   */\n      dup4\n        /* \"#utility.yul\":1580:1597   */\n      add\n        /* \"#utility.yul\":1571:1577   */\n      dup5\n        /* \"#utility.yul\":1527:1598   */\n      tag_99\n      jump\t// in\n    tag_135:\n        /* \"#utility.yul\":1383:1605   */\n      swap3\n      swap2\n      pop\n      pop\n      jump\t// out\n        /* \"#utility.yul\":1611:1729   */\n    tag_100:\n        /* \"#utility.yul\":1698:1722   */\n      tag_137\n        /* \"#utility.yul\":1716:1721   */\n      dup2\n        /* \"#utility.yul\":1698:1722   */\n      tag_95\n      jump\t// in\n    tag_137:\n        /* \"#utility.yul\":1693:1696   */\n      dup3\n        /* \"#utility.yul\":1686:1723   */\n      mstore\n        /* \"#utility.yul\":1611:1729   */\n      pop\n      pop\n      jump\t// out\n        /* \"#utility.yul\":1735:1957   */\n    tag_35:\n        /* \"#utility.yul\":1828:1832   */\n      0x00\n        /* \"#utility.yul\":1866:1868   */\n      0x20\n        /* \"#utility.yul\":1855:1864   */\n      dup3\n        /* \"#utility.yul\":1851:1869   */\n      add\n        /* \"#utility.yul\":1843:1869   */\n      swap1\n      pop\n        /* \"#utility.yul\":1879:1950   */\n      tag_139\n        /* \"#utility.yul\":1947:1948   */\n      0x00\n        /* \"#utility.yul\":1936:1945   */\n      dup4\n        /* \"#utility.yul\":1932:1949   */\n      add\n        /* \"#utility.yul\":1923:1929   */\n      dup5\n        /* \"#utility.yul\":1879:1950   */\n      tag_100\n      jump\t// in\n    tag_139:\n        /* \"#utility.yul\":1735:1957   */\n      swap3\n      swap2\n      pop\n      pop\n      jump\t// out\n        /* \"#utility.yul\":1963:2085   */\n    tag_101:\n        /* \"#utility.yul\":2036:2060   */\n      tag_141\n        /* \"#utility.yul\":2054:2059   */\n      dup2\n        /* \"#utility.yul\":2036:2060   */\n      tag_98\n      jump\t// in\n    tag_141:\n        /* \"#utility.yul\":2029:2034   */\n      dup2\n        /* \"#utility.yul\":2026:2061   */\n      eq\n        /* \"#utility.yul\":2016:2079   */\n      tag_142\n      jumpi\n        /* \"#utility.yul\":2075:2076   */\n      0x00\n        /* \"#utility.yul\":2072:2073   */\n      dup1\n        /* \"#utility.yul\":2065:2077   */\n      revert\n        /* \"#utility.yul\":2016:2079   */\n    tag_142:\n        /* \"#utility.yul\":1963:2085   */\n      pop\n      jump\t// out\n        /* \"#utility.yul\":2091:2230   */\n    tag_102:\n        /* \"#utility.yul\":2137:2142   */\n      0x00\n        /* \"#utility.yul\":2175:2181   */\n      dup2\n        /* \"#utility.yul\":2162:2182   */\n      calldataload\n        /* \"#utility.yul\":2153:2182   */\n      swap1\n      pop\n        /* \"#utility.yul\":2191:2224   */\n      tag_144\n        /* \"#utility.yul\":2218:2223   */\n      dup2\n        /* \"#utility.yul\":2191:2224   */\n      tag_101\n      jump\t// in\n    tag_144:\n        /* \"#utility.yul\":2091:2230   */\n      swap3\n      swap2\n      pop\n      pop\n      jump\t// out\n        /* \"#utility.yul\":2236:2565   */\n    tag_39:\n        /* \"#utility.yul\":2295:2301   */\n      0x00\n        /* \"#utility.yul\":2344:2346   */\n      0x20\n        /* \"#utility.yul\":2332:2341   */\n      dup3\n        /* \"#utility.yul\":2323:2330   */\n      dup5\n        /* \"#utility.yul\":2319:2342   */\n      sub\n        /* \"#utility.yul\":2315:2347   */\n      slt\n        /* \"#utility.yul\":2312:2431   */\n      iszero\n      tag_146\n      jumpi\n        /* \"#utility.yul\":2350:2429   */\n      tag_147\n      tag_92\n      jump\t// in\n    tag_147:\n        /* \"#utility.yul\":2312:2431   */\n    tag_146:\n        /* \"#utility.yul\":2470:2471   */\n      0x00\n        /* \"#utility.yul\":2495:2548   */\n      tag_148\n        /* \"#utility.yul\":2540:2547   */\n      dup5\n        /* \"#utility.yul\":2531:2537   */\n      dup3\n        /* \"#utility.yul\":2520:2529   */\n      dup6\n        /* \"#utility.yul\":2516:2538   */\n      add\n        /* \"#utility.yul\":2495:2548   */\n      tag_102\n      jump\t// in\n    tag_148:\n        /* \"#utility.yul\":2485:2548   */\n      swap2\n      pop\n        /* \"#utility.yul\":2441:2558   */\n      pop\n        /* \"#utility.yul\":2236:2565   */\n      swap3\n      swap2\n      pop\n      pop\n      jump\t// out\n        /* \"#utility.yul\":2571:2751   */\n    tag_103:\n        /* \"#utility.yul\":2619:2696   */\n      0x4e487b7100000000000000000000000000000000000000000000000000000000\n        /* \"#utility.yul\":2616:2617   */\n      0x00\n        /* \"#utility.yul\":2609:2697   */\n      mstore\n        /* \"#utility.yul\":2716:2720   */\n      0x11\n        /* \"#utility.yul\":2713:2714   */\n      0x04\n        /* \"#utility.yul\":2706:2721   */\n      mstore\n        /* \"#utility.yul\":2740:2744   */\n      0x24\n        /* \"#utility.yul\":2737:2738   */\n      0x00\n        /* \"#utility.yul\":2730:2745   */\n      revert\n        /* \"#utility.yul\":2757:2948   */\n    tag_48:\n        /* \"#utility.yul\":2797:2800   */\n      0x00\n        /* \"#utility.yul\":2816:2836   */\n      tag_151\n        /* \"#utility.yul\":2834:2835   */\n      dup3\n        /* \"#utility.yul\":2816:2836   */\n      tag_98\n      jump\t// in\n    tag_151:\n        /* \"#utility.yul\":2811:2836   */\n      swap2\n      pop\n        /* \"#utility.yul\":2850:2870   */\n      tag_152\n        /* \"#utility.yul\":2868:2869   */\n      dup4\n        /* \"#utility.yul\":2850:2870   */\n      tag_98\n      jump\t// in\n    tag_152:\n        /* \"#utility.yul\":2845:2870   */\n      swap3\n      pop\n        /* \"#utility.yul\":2893:2894   */\n      dup3\n        /* \"#utility.yul\":2890:2891   */\n      dup3\n        /* \"#utility.yul\":2886:2895   */\n      add\n        /* \"#utility.yul\":2879:2895   */\n      swap1\n      pop\n        /* \"#utility.yul\":2914:2917   */\n      dup1\n        /* \"#utility.yul\":2911:2912   */\n      dup3\n        /* \"#utility.yul\":2908:2918   */\n      gt\n        /* \"#utility.yul\":2905:2941   */\n      iszero\n      tag_153\n      jumpi\n        /* \"#utility.yul\":2921:2939   */\n      tag_154\n      tag_103\n      jump\t// in\n    tag_154:\n        /* \"#utility.yul\":2905:2941   */\n    tag_153:\n        /* \"#utility.yul\":2757:2948   */\n      swap3\n      swap2\n      pop\n      pop\n      jump\t// out\n        /* \"#utility.yul\":2954:3134   */\n    tag_55:\n        /* \"#utility.yul\":3002:3079   */\n      0x4e487b7100000000000000000000000000000000000000000000000000000000\n        /* \"#utility.yul\":2999:3000   */\n      0x00\n        /* \"#utility.yul\":2992:3080   */\n      mstore\n        /* \"#utility.yul\":3099:3103   */\n      0x32\n        /* \"#utility.yul\":3096:3097   */\n      0x04\n        /* \"#utility.yul\":3089:3104   */\n      mstore\n        /* \"#utility.yul\":3123:3127   */\n      0x24\n        /* \"#utility.yul\":3120:3121   */\n      0x00\n        /* \"#utility.yul\":3113:3128   */\n      revert\n        /* \"#utility.yul\":3140:3320   */\n    tag_59:\n        /* \"#utility.yul\":3188:3265   */\n      0x4e487b7100000000000000000000000000000000000000000000000000000000\n        /* \"#utility.yul\":3185:3186   */\n      0x00\n        /* \"#utility.yul\":3178:3266   */\n      mstore\n        /* \"#utility.yul\":3285:3289   */\n      0x41\n        /* \"#utility.yul\":3282:3283   */\n      0x04\n        /* \"#utility.yul\":3275:3290   */\n      mstore\n        /* \"#utility.yul\":3309:3313   */\n      0x24\n        /* \"#utility.yul\":3306:3307   */\n      0x00\n        /* \"#utility.yul\":3299:3314   */\n      revert\n        /* \"#utility.yul\":3326:3473   */\n    tag_104:\n        /* \"#utility.yul\":3427:3438   */\n      0x00\n        /* \"#utility.yul\":3464:3467   */\n      dup2\n        /* \"#utility.yul\":3449:3467   */\n      swap1\n      pop\n        /* \"#utility.yul\":3326:3473   */\n      swap3\n      swap2\n      pop\n      pop\n      jump\t// out\n        /* \"#utility.yul\":3479:3593   */\n    tag_105:\n      pop\n      jump\t// out\n        /* \"#utility.yul\":3599:3997   */\n    tag_106:\n        /* \"#utility.yul\":3758:3761   */\n      0x00\n        /* \"#utility.yul\":3779:3862   */\n      tag_160\n        /* \"#utility.yul\":3860:3861   */\n      0x00\n        /* \"#utility.yul\":3855:3858   */\n      dup4\n        /* \"#utility.yul\":3779:3862   */\n      tag_104\n      jump\t// in\n    tag_160:\n        /* \"#utility.yul\":3772:3862   */\n      swap2\n      pop\n        /* \"#utility.yul\":3871:3964   */\n      tag_161\n        /* \"#utility.yul\":3960:3963   */\n      dup3\n        /* \"#utility.yul\":3871:3964   */\n      tag_105\n      jump\t// in\n    tag_161:\n        /* \"#utility.yul\":3989:3990   */\n      0x00\n        /* \"#utility.yul\":3984:3987   */\n      dup3\n        /* \"#utility.yul\":3980:3991   */\n      add\n        /* \"#utility.yul\":3973:3991   */\n      swap1\n      pop\n        /* \"#utility.yul\":3599:3997   */\n      swap2\n      swap1\n      pop\n      jump\t// out\n        /* \"#utility.yul\":4003:4382   */\n    tag_64:\n        /* \"#utility.yul\":4187:4190   */\n      0x00\n        /* \"#utility.yul\":4209:4356   */\n      tag_163\n        /* \"#utility.yul\":4352:4355   */\n      dup3\n        /* \"#utility.yul\":4209:4356   */\n      tag_106\n      jump\t// in\n    tag_163:\n        /* \"#utility.yul\":4202:4356   */\n      swap2\n      pop\n        /* \"#utility.yul\":4373:4376   */\n      dup2\n        /* \"#utility.yul\":4366:4376   */\n      swap1\n      pop\n        /* \"#utility.yul\":4003:4382   */\n      swap2\n      swap1\n      pop\n      jump\t// out\n        /* \"#utility.yul\":4388:4798   */\n    tag_75:\n        /* \"#utility.yul\":4428:4435   */\n      0x00\n        /* \"#utility.yul\":4451:4471   */\n      tag_165\n        /* \"#utility.yul\":4469:4470   */\n      dup3\n        /* \"#utility.yul\":4451:4471   */\n      tag_98\n      jump\t// in\n    tag_165:\n        /* \"#utility.yul\":4446:4471   */\n      swap2\n      pop\n        /* \"#utility.yul\":4485:4505   */\n      tag_166\n        /* \"#utility.yul\":4503:4504   */\n      dup4\n        /* \"#utility.yul\":4485:4505   */\n      tag_98\n      jump\t// in\n    tag_166:\n        /* \"#utility.yul\":4480:4505   */\n      swap3\n      pop\n        /* \"#utility.yul\":4540:4541   */\n      dup3\n        /* \"#utility.yul\":4537:4538   */\n      dup3\n        /* \"#utility.yul\":4533:4542   */\n      mul\n        /* \"#utility.yul\":4562:4592   */\n      tag_167\n        /* \"#utility.yul\":4580:4591   */\n      dup2\n        /* \"#utility.yul\":4562:4592   */\n      tag_98\n      jump\t// in\n    tag_167:\n        /* \"#utility.yul\":4551:4592   */\n      swap2\n      pop\n        /* \"#utility.yul\":4741:4742   */\n      dup3\n        /* \"#utility.yul\":4732:4739   */\n      dup3\n        /* \"#utility.yul\":4728:4743   */\n      div\n        /* \"#utility.yul\":4725:4726   */\n      dup5\n        /* \"#utility.yul\":4722:4744   */\n      eq\n        /* \"#utility.yul\":4702:4703   */\n      dup4\n        /* \"#utility.yul\":4695:4704   */\n      iszero\n        /* \"#utility.yul\":4675:4758   */\n      or\n        /* \"#utility.yul\":4652:4791   */\n      tag_168\n      jumpi\n        /* \"#utility.yul\":4771:4789   */\n      tag_169\n      tag_103\n      jump\t// in\n    tag_169:\n        /* \"#utility.yul\":4652:4791   */\n    tag_168:\n        /* \"#utility.yul\":4436:4798   */\n      pop\n        /* \"#utility.yul\":4388:4798   */\n      swap3\n      swap2\n      pop\n      pop\n      jump\t// out\n        /* \"#utility.yul\":4804:4984   */\n    tag_107:\n        /* \"#utility.yul\":4852:4929   */\n      0x4e487b7100000000000000000000000000000000000000000000000000000000\n        /* \"#utility.yul\":4849:4850   */\n      0x00\n        /* \"#utility.yul\":4842:4930   */\n      mstore\n        /* \"#utility.yul\":4949:4953   */\n      0x12\n        /* \"#utility.yul\":4946:4947   */\n      0x04\n        /* \"#utility.yul\":4939:4954   */\n      mstore\n        /* \"#utility.yul\":4973:4977   */\n      0x24\n        /* \"#utility.yul\":4970:4971   */\n      0x00\n        /* \"#utility.yul\":4963:4978   */\n      revert\n        /* \"#utility.yul\":4990:5175   */\n    tag_77:\n        /* \"#utility.yul\":5030:5031   */\n      0x00\n        /* \"#utility.yul\":5047:5067   */\n      tag_172\n        /* \"#utility.yul\":5065:5066   */\n      dup3\n        /* \"#utility.yul\":5047:5067   */\n      tag_98\n      jump\t// in\n    tag_172:\n        /* \"#utility.yul\":5042:5067   */\n      swap2\n      pop\n        /* \"#utility.yul\":5081:5101   */\n      tag_173\n        /* \"#utility.yul\":5099:5100   */\n      dup4\n        /* \"#utility.yul\":5081:5101   */\n      tag_98\n      jump\t// in\n    tag_173:\n        /* \"#utility.yul\":5076:5101   */\n      swap3\n      pop\n        /* \"#utility.yul\":5120:5121   */\n      dup3\n        /* \"#utility.yul\":5110:5145   */\n      tag_174\n      jumpi\n        /* \"#utility.yul\":5125:5143   */\n      tag_175\n      tag_107\n      jump\t// in\n    tag_175:\n        /* \"#utility.yul\":5110:5145   */\n    tag_174:\n        /* \"#utility.yul\":5167:5168   */\n      dup3\n        /* \"#utility.yul\":5164:5165   */\n      dup3\n        /* \"#utility.yul\":5160:5169   */\n      div\n        /* \"#utility.yul\":5155:5169   */\n      swap1\n      pop\n        /* \"#utility.yul\":4990:5175   */\n      swap3\n      swap2\n      pop\n      pop\n      jump\t// out\n        /* \"#utility.yul\":5181:5286   */\n    tag_108:\n        /* \"#utility.yul\":5217:5224   */\n      0x00\n        /* \"#utility.yul\":5257:5279   */\n      0xffffffffffffffffffff\n        /* \"#utility.yul\":5250:5255   */\n      dup3\n        /* \"#utility.yul\":5246:5280   */\n      and\n        /* \"#utility.yul\":5235:5280   */\n      swap1\n      pop\n        /* \"#utility.yul\":5181:5286   */\n      swap2\n      swap1\n      pop\n      jump\t// out\n        /* \"#utility.yul\":5292:5412   */\n    tag_109:\n        /* \"#utility.yul\":5364:5387   */\n      tag_178\n        /* \"#utility.yul\":5381:5386   */\n      dup2\n        /* \"#utility.yul\":5364:5387   */\n      tag_108\n      jump\t// in\n    tag_178:\n        /* \"#utility.yul\":5357:5362   */\n      dup2\n        /* \"#utility.yul\":5354:5388   */\n      eq\n        /* \"#utility.yul\":5344:5406   */\n      tag_179\n      jumpi\n        /* \"#utility.yul\":5402:5403   */\n      0x00\n        /* \"#utility.yul\":5399:5400   */\n      dup1\n        /* \"#utility.yul\":5392:5404   */\n      revert\n        /* \"#utility.yul\":5344:5406   */\n    tag_179:\n        /* \"#utility.yul\":5292:5412   */\n      pop\n      jump\t// out\n        /* \"#utility.yul\":5418:5559   */\n    tag_110:\n        /* \"#utility.yul\":5474:5479   */\n      0x00\n        /* \"#utility.yul\":5505:5511   */\n      dup2\n        /* \"#utility.yul\":5499:5512   */\n      mload\n        /* \"#utility.yul\":5490:5512   */\n      swap1\n      pop\n        /* \"#utility.yul\":5521:5553   */\n      tag_181\n        /* \"#utility.yul\":5547:5552   */\n      dup2\n        /* \"#utility.yul\":5521:5553   */\n      tag_109\n      jump\t// in\n    tag_181:\n        /* \"#utility.yul\":5418:5559   */\n      swap3\n      swap2\n      pop\n      pop\n      jump\t// out\n        /* \"#utility.yul\":5565:5641   */\n    tag_111:\n        /* \"#utility.yul\":5601:5608   */\n      0x00\n        /* \"#utility.yul\":5630:5635   */\n      dup2\n        /* \"#utility.yul\":5619:5635   */\n      swap1\n      pop\n        /* \"#utility.yul\":5565:5641   */\n      swap2\n      swap1\n      pop\n      jump\t// out\n        /* \"#utility.yul\":5647:5767   */\n    tag_112:\n        /* \"#utility.yul\":5719:5742   */\n      tag_184\n        /* \"#utility.yul\":5736:5741   */\n      dup2\n        /* \"#utility.yul\":5719:5742   */\n      tag_111\n      jump\t// in\n    tag_184:\n        /* \"#utility.yul\":5712:5717   */\n      dup2\n        /* \"#utility.yul\":5709:5743   */\n      eq\n        /* \"#utility.yul\":5699:5761   */\n      tag_185\n      jumpi\n        /* \"#utility.yul\":5757:5758   */\n      0x00\n        /* \"#utility.yul\":5754:5755   */\n      dup1\n        /* \"#utility.yul\":5747:5759   */\n      revert\n        /* \"#utility.yul\":5699:5761   */\n    tag_185:\n        /* \"#utility.yul\":5647:5767   */\n      pop\n      jump\t// out\n        /* \"#utility.yul\":5773:5914   */\n    tag_113:\n        /* \"#utility.yul\":5829:5834   */\n      0x00\n        /* \"#utility.yul\":5860:5866   */\n      dup2\n        /* \"#utility.yul\":5854:5867   */\n      mload\n        /* \"#utility.yul\":5845:5867   */\n      swap1\n      pop\n        /* \"#utility.yul\":5876:5908   */\n      tag_187\n        /* \"#utility.yul\":5902:5907   */\n      dup2\n        /* \"#utility.yul\":5876:5908   */\n      tag_112\n      jump\t// in\n    tag_187:\n        /* \"#utility.yul\":5773:5914   */\n      swap3\n      swap2\n      pop\n      pop\n      jump\t// out\n        /* \"#utility.yul\":5920:6063   */\n    tag_114:\n        /* \"#utility.yul\":5977:5982   */\n      0x00\n        /* \"#utility.yul\":6008:6014   */\n      dup2\n        /* \"#utility.yul\":6002:6015   */\n      mload\n        /* \"#utility.yul\":5993:6015   */\n      swap1\n      pop\n        /* \"#utility.yul\":6024:6057   */\n      tag_189\n        /* \"#utility.yul\":6051:6056   */\n      dup2\n        /* \"#utility.yul\":6024:6057   */\n      tag_101\n      jump\t// in\n    tag_189:\n        /* \"#utility.yul\":5920:6063   */\n      swap3\n      swap2\n      pop\n      pop\n      jump\t// out\n        /* \"#utility.yul\":6069:7040   */\n    tag_82:\n        /* \"#utility.yul\":6172:6178   */\n      0x00\n        /* \"#utility.yul\":6180:6186   */\n      dup1\n        /* \"#utility.yul\":6188:6194   */\n      0x00\n        /* \"#utility.yul\":6196:6202   */\n      dup1\n        /* \"#utility.yul\":6204:6210   */\n      0x00\n        /* \"#utility.yul\":6253:6256   */\n      0xa0\n        /* \"#utility.yul\":6241:6250   */\n      dup7\n        /* \"#utility.yul\":6232:6239   */\n      dup9\n        /* \"#utility.yul\":6228:6251   */\n      sub\n        /* \"#utility.yul\":6224:6257   */\n      slt\n        /* \"#utility.yul\":6221:6341   */\n      iszero\n      tag_191\n      jumpi\n        /* \"#utility.yul\":6260:6339   */\n      tag_192\n      tag_92\n      jump\t// in\n    tag_192:\n        /* \"#utility.yul\":6221:6341   */\n    tag_191:\n        /* \"#utility.yul\":6380:6381   */\n      0x00\n        /* \"#utility.yul\":6405:6468   */\n      tag_193\n        /* \"#utility.yul\":6460:6467   */\n      dup9\n        /* \"#utility.yul\":6451:6457   */\n      dup3\n        /* \"#utility.yul\":6440:6449   */\n      dup10\n        /* \"#utility.yul\":6436:6458   */\n      add\n        /* \"#utility.yul\":6405:6468   */\n      tag_110\n      jump\t// in\n    tag_193:\n        /* \"#utility.yul\":6395:6468   */\n      swap6\n      pop\n        /* \"#utility.yul\":6351:6478   */\n      pop\n        /* \"#utility.yul\":6517:6519   */\n      0x20\n        /* \"#utility.yul\":6543:6606   */\n      tag_194\n        /* \"#utility.yul\":6598:6605   */\n      dup9\n        /* \"#utility.yul\":6589:6595   */\n      dup3\n        /* \"#utility.yul\":6578:6587   */\n      dup10\n        /* \"#utility.yul\":6574:6596   */\n      add\n        /* \"#utility.yul\":6543:6606   */\n      tag_113\n      jump\t// in\n    tag_194:\n        /* \"#utility.yul\":6533:6606   */\n      swap5\n      pop\n        /* \"#utility.yul\":6488:6616   */\n      pop\n        /* \"#utility.yul\":6655:6657   */\n      0x40\n        /* \"#utility.yul\":6681:6745   */\n      tag_195\n        /* \"#utility.yul\":6737:6744   */\n      dup9\n        /* \"#utility.yul\":6728:6734   */\n      dup3\n        /* \"#utility.yul\":6717:6726   */\n      dup10\n        /* \"#utility.yul\":6713:6735   */\n      add\n        /* \"#utility.yul\":6681:6745   */\n      tag_114\n      jump\t// in\n    tag_195:\n        /* \"#utility.yul\":6671:6745   */\n      swap4\n      pop\n        /* \"#utility.yul\":6626:6755   */\n      pop\n        /* \"#utility.yul\":6794:6796   */\n      0x60\n        /* \"#utility.yul\":6820:6884   */\n      tag_196\n        /* \"#utility.yul\":6876:6883   */\n      dup9\n        /* \"#utility.yul\":6867:6873   */\n      dup3\n        /* \"#utility.yul\":6856:6865   */\n      dup10\n        /* \"#utility.yul\":6852:6874   */\n      add\n        /* \"#utility.yul\":6820:6884   */\n      tag_114\n      jump\t// in\n    tag_196:\n        /* \"#utility.yul\":6810:6884   */\n      swap3\n      pop\n        /* \"#utility.yul\":6765:6894   */\n      pop\n        /* \"#utility.yul\":6933:6936   */\n      0x80\n        /* \"#utility.yul\":6960:7023   */\n      tag_197\n        /* \"#utility.yul\":7015:7022   */\n      dup9\n        /* \"#utility.yul\":7006:7012   */\n      dup3\n        /* \"#utility.yul\":6995:7004   */\n      dup10\n        /* \"#utility.yul\":6991:7013   */\n      add\n        /* \"#utility.yul\":6960:7023   */\n      tag_110\n      jump\t// in\n    tag_197:\n        /* \"#utility.yul\":6950:7023   */\n      swap2\n      pop\n        /* \"#utility.yul\":6904:7033   */\n      pop\n        /* \"#utility.yul\":6069:7040   */\n      swap3\n      swap6\n      pop\n      swap3\n      swap6\n      swap1\n      swap4\n      pop\n      jump\t// out\n\n    auxdata: 0xa2646970667358221220af1ed0be287bf7a70f3991c4b7a9330f065d8acddf2dcd38811abc09c4ed4e0964736f6c634300081a0033\n}\n",
				"bytecode": {
					"linkReferences": {},
					"object": "60a0604052348015600e575f80fd5b503373ffffffffffffffffffffffffffffffffffffffff1660808173ffffffffffffffffffffffffffffffffffffffff16815250506080516109f961005b5f395f61041b01526109f95ff3fe608060405260043610610058575f3560e01c80633e47d6f3146100715780636b69a592146100ad578063b60d4288146100d7578063d4e93292146100e1578063dba6335f146100f7578063dc0d3dff1461012157610067565b366100675761006561015d565b005b61006f61015d565b005b34801561007c575f80fd5b5061009760048036038101906100929190610654565b61025b565b6040516100a49190610697565b60405180910390f35b3480156100b8575f80fd5b506100c1610270565b6040516100ce9190610697565b60405180910390f35b6100df61015d565b005b3480156100ec575f80fd5b506100f561027c565b005b348015610102575f80fd5b5061010b610419565b60405161011891906106bf565b60405180910390f35b34801561012c575f80fd5b5061014760048036038101906101429190610702565b61043d565b60405161015491906106bf565b60405180910390f35b674563918244f4000061016f34610477565b10156101a7576040517f583aa02600000000000000000000000000000000000000000000000000000000815260040160405180910390fd5b5f33908060018154018082558091505060019003905f5260205f20015f9091909190916101000a81548173ffffffffffffffffffffffffffffffffffffffff021916908373ffffffffffffffffffffffffffffffffffffffff1602179055503460015f3373ffffffffffffffffffffffffffffffffffffffff1673ffffffffffffffffffffffffffffffffffffffff1681526020019081526020015f205f828254610252919061075a565b92505081905550565b6001602052805f5260405f205f915090505481565b674563918244f4000081565b5f5b5f80549050811015610318575f80828154811061029e5761029d61078d565b5b905f5260205f20015f9054906101000a900473ffffffffffffffffffffffffffffffffffffffff1690505f60015f8373ffffffffffffffffffffffffffffffffffffffff1673ffffffffffffffffffffffffffffffffffffffff1681526020019081526020015f208190555050808060010191505061027e565b505f67ffffffffffffffff811115610333576103326107ba565b5b6040519080825280602002602001820160405280156103615781602001602082028036833780820191505090505b505f9080519060200190610376929190610554565b505f3373ffffffffffffffffffffffffffffffffffffffff164760405161039c90610814565b5f6040518083038185875af1925050503d805f81146103d6576040519150601f19603f3d011682016040523d82523d5f602084013e6103db565b606091505b5050905080610416576040517f27fcd9d100000000000000000000000000000000000000000000000000000000815260040160405180910390fd5b50565b7f000000000000000000000000000000000000000000000000000000000000000081565b5f818154811061044b575f80fd5b905f5260205f20015f915054906101000a900473ffffffffffffffffffffffffffffffffffffffff1681565b5f806104816104af565b90505f670de0b6b3a764000084836104999190610828565b6104a39190610896565b90508092505050919050565b5f8073694aa1769357215de4fac081bf1f309adc32530690505f8173ffffffffffffffffffffffffffffffffffffffff1663feaf968c6040518163ffffffff1660e01b815260040160a060405180830381865afa158015610512573d5f803e3d5ffd5b505050506040513d601f19601f82011682018060405250810190610536919061094c565b5050509150506402540be4008161054d9190610828565b9250505090565b828054828255905f5260205f209081019282156105ca579160200282015b828111156105c9578251825f6101000a81548173ffffffffffffffffffffffffffffffffffffffff021916908373ffffffffffffffffffffffffffffffffffffffff16021790555091602001919060010190610572565b5b5090506105d791906105db565b5090565b5b808211156105f2575f815f9055506001016105dc565b5090565b5f80fd5b5f73ffffffffffffffffffffffffffffffffffffffff82169050919050565b5f610623826105fa565b9050919050565b61063381610619565b811461063d575f80fd5b50565b5f8135905061064e8161062a565b92915050565b5f60208284031215610669576106686105f6565b5b5f61067684828501610640565b91505092915050565b5f819050919050565b6106918161067f565b82525050565b5f6020820190506106aa5f830184610688565b92915050565b6106b981610619565b82525050565b5f6020820190506106d25f8301846106b0565b92915050565b6106e18161067f565b81146106eb575f80fd5b50565b5f813590506106fc816106d8565b92915050565b5f60208284031215610717576107166105f6565b5b5f610724848285016106ee565b91505092915050565b7f4e487b71000000000000000000000000000000000000000000000000000000005f52601160045260245ffd5b5f6107648261067f565b915061076f8361067f565b92508282019050808211156107875761078661072d565b5b92915050565b7f4e487b71000000000000000000000000000000000000000000000000000000005f52603260045260245ffd5b7f4e487b71000000000000000000000000000000000000000000000000000000005f52604160045260245ffd5b5f81905092915050565b50565b5f6107ff5f836107e7565b915061080a826107f1565b5f82019050919050565b5f61081e826107f4565b9150819050919050565b5f6108328261067f565b915061083d8361067f565b925082820261084b8161067f565b915082820484148315176108625761086161072d565b5b5092915050565b7f4e487b71000000000000000000000000000000000000000000000000000000005f52601260045260245ffd5b5f6108a08261067f565b91506108ab8361067f565b9250826108bb576108ba610869565b5b828204905092915050565b5f69ffffffffffffffffffff82169050919050565b6108e4816108c6565b81146108ee575f80fd5b50565b5f815190506108ff816108db565b92915050565b5f819050919050565b61091781610905565b8114610921575f80fd5b50565b5f815190506109328161090e565b92915050565b5f81519050610946816106d8565b92915050565b5f805f805f60a08688031215610965576109646105f6565b5b5f610972888289016108f1565b955050602061098388828901610924565b945050604061099488828901610938565b93505060606109a588828901610938565b92505060806109b6888289016108f1565b915050929550929590935056fea2646970667358221220af1ed0be287bf7a70f3991c4b7a9330f065d8acddf2dcd38811abc09c4ed4e0964736f6c634300081a0033",
					"opcodes": "PUSH1 0xA0 PUSH1 0x40 MSTORE CALLVALUE DUP1 ISZERO PUSH1 0xE JUMPI PUSH0 DUP1 REVERT JUMPDEST POP CALLER PUSH20 0xFFFFFFFFFFFFFFFFFFFFFFFFFFFFFFFFFFFFFFFF AND PUSH1 0x80 DUP2 PUSH20 0xFFFFFFFFFFFFFFFFFFFFFFFFFFFFFFFFFFFFFFFF AND DUP2 MSTORE POP POP PUSH1 0x80 MLOAD PUSH2 0x9F9 PUSH2 0x5B PUSH0 CODECOPY PUSH0 PUSH2 0x41B ADD MSTORE PUSH2 0x9F9 PUSH0 RETURN INVALID PUSH1 0x80 PUSH1 0x40 MSTORE PUSH1 0x4 CALLDATASIZE LT PUSH2 0x58 JUMPI PUSH0 CALLDATALOAD PUSH1 0xE0 SHR DUP1 PUSH4 0x3E47D6F3 EQ PUSH2 0x71 JUMPI DUP1 PUSH4 0x6B69A592 EQ PUSH2 0xAD JUMPI DUP1 PUSH4 0xB60D4288 EQ PUSH2 0xD7 JUMPI DUP1 PUSH4 0xD4E93292 EQ PUSH2 0xE1 JUMPI DUP1 PUSH4 0xDBA6335F EQ PUSH2 0xF7 JUMPI DUP1 PUSH4 0xDC0D3DFF EQ PUSH2 0x121 JUMPI PUSH2 0x67 JUMP JUMPDEST CALLDATASIZE PUSH2 0x67 JUMPI PUSH2 0x65 PUSH2 0x15D JUMP JUMPDEST STOP JUMPDEST PUSH2 0x6F PUSH2 0x15D JUMP JUMPDEST STOP JUMPDEST CALLVALUE DUP1 ISZERO PUSH2 0x7C JUMPI PUSH0 DUP1 REVERT JUMPDEST POP PUSH2 0x97 PUSH1 0x4 DUP1 CALLDATASIZE SUB DUP2 ADD SWAP1 PUSH2 0x92 SWAP2 SWAP1 PUSH2 0x654 JUMP JUMPDEST PUSH2 0x25B JUMP JUMPDEST PUSH1 0x40 MLOAD PUSH2 0xA4 SWAP2 SWAP1 PUSH2 0x697 JUMP JUMPDEST PUSH1 0x40 MLOAD DUP1 SWAP2 SUB SWAP1 RETURN JUMPDEST CALLVALUE DUP1 ISZERO PUSH2 0xB8 JUMPI PUSH0 DUP1 REVERT JUMPDEST POP PUSH2 0xC1 PUSH2 0x270 JUMP JUMPDEST PUSH1 0x40 MLOAD PUSH2 0xCE SWAP2 SWAP1 PUSH2 0x697 JUMP JUMPDEST PUSH1 0x40 MLOAD DUP1 SWAP2 SUB SWAP1 RETURN JUMPDEST PUSH2 0xDF PUSH2 0x15D JUMP JUMPDEST STOP JUMPDEST CALLVALUE DUP1 ISZERO PUSH2 0xEC JUMPI PUSH0 DUP1 REVERT JUMPDEST POP PUSH2 0xF5 PUSH2 0x27C JUMP JUMPDEST STOP JUMPDEST CALLVALUE DUP1 ISZERO PUSH2 0x102 JUMPI PUSH0 DUP1 REVERT JUMPDEST POP PUSH2 0x10B PUSH2 0x419 JUMP JUMPDEST PUSH1 0x40 MLOAD PUSH2 0x118 SWAP2 SWAP1 PUSH2 0x6BF JUMP JUMPDEST PUSH1 0x40 MLOAD DUP1 SWAP2 SUB SWAP1 RETURN JUMPDEST CALLVALUE DUP1 ISZERO PUSH2 0x12C JUMPI PUSH0 DUP1 REVERT JUMPDEST POP PUSH2 0x147 PUSH1 0x4 DUP1 CALLDATASIZE SUB DUP2 ADD SWAP1 PUSH2 0x142 SWAP2 SWAP1 PUSH2 0x702 JUMP JUMPDEST PUSH2 0x43D JUMP JUMPDEST PUSH1 0x40 MLOAD PUSH2 0x154 SWAP2 SWAP1 PUSH2 0x6BF JUMP JUMPDEST PUSH1 0x40 MLOAD DUP1 SWAP2 SUB SWAP1 RETURN JUMPDEST PUSH8 0x4563918244F40000 PUSH2 0x16F CALLVALUE PUSH2 0x477 JUMP JUMPDEST LT ISZERO PUSH2 0x1A7 JUMPI PUSH1 0x40 MLOAD PUSH32 0x583AA02600000000000000000000000000000000000000000000000000000000 DUP2 MSTORE PUSH1 0x4 ADD PUSH1 0x40 MLOAD DUP1 SWAP2 SUB SWAP1 REVERT JUMPDEST PUSH0 CALLER SWAP1 DUP1 PUSH1 0x1 DUP2 SLOAD ADD DUP1 DUP3 SSTORE DUP1 SWAP2 POP POP PUSH1 0x1 SWAP1 SUB SWAP1 PUSH0 MSTORE PUSH1 0x20 PUSH0 KECCAK256 ADD PUSH0 SWAP1 SWAP2 SWAP1 SWAP2 SWAP1 SWAP2 PUSH2 0x100 EXP DUP2 SLOAD DUP2 PUSH20 0xFFFFFFFFFFFFFFFFFFFFFFFFFFFFFFFFFFFFFFFF MUL NOT AND SWAP1 DUP4 PUSH20 0xFFFFFFFFFFFFFFFFFFFFFFFFFFFFFFFFFFFFFFFF AND MUL OR SWAP1 SSTORE POP CALLVALUE PUSH1 0x1 PUSH0 CALLER PUSH20 0xFFFFFFFFFFFFFFFFFFFFFFFFFFFFFFFFFFFFFFFF AND PUSH20 0xFFFFFFFFFFFFFFFFFFFFFFFFFFFFFFFFFFFFFFFF AND DUP2 MSTORE PUSH1 0x20 ADD SWAP1 DUP2 MSTORE PUSH1 0x20 ADD PUSH0 KECCAK256 PUSH0 DUP3 DUP3 SLOAD PUSH2 0x252 SWAP2 SWAP1 PUSH2 0x75A JUMP JUMPDEST SWAP3 POP POP DUP2 SWAP1 SSTORE POP JUMP JUMPDEST PUSH1 0x1 PUSH1 0x20 MSTORE DUP1 PUSH0 MSTORE PUSH1 0x40 PUSH0 KECCAK256 PUSH0 SWAP2 POP SWAP1 POP SLOAD DUP2 JUMP JUMPDEST PUSH8 0x4563918244F40000 DUP2 JUMP JUMPDEST PUSH0 JUMPDEST PUSH0 DUP1 SLOAD SWAP1 POP DUP2 LT ISZERO PUSH2 0x318 JUMPI PUSH0 DUP1 DUP3 DUP2 SLOAD DUP2 LT PUSH2 0x29E JUMPI PUSH2 0x29D PUSH2 0x78D JUMP JUMPDEST JUMPDEST SWAP1 PUSH0 MSTORE PUSH1 0x20 PUSH0 KECCAK256 ADD PUSH0 SWAP1 SLOAD SWAP1 PUSH2 0x100 EXP SWAP1 DIV PUSH20 0xFFFFFFFFFFFFFFFFFFFFFFFFFFFFFFFFFFFFFFFF AND SWAP1 POP PUSH0 PUSH1 0x1 PUSH0 DUP4 PUSH20 0xFFFFFFFFFFFFFFFFFFFFFFFFFFFFFFFFFFFFFFFF AND PUSH20 0xFFFFFFFFFFFFFFFFFFFFFFFFFFFFFFFFFFFFFFFF AND DUP2 MSTORE PUSH1 0x20 ADD SWAP1 DUP2 MSTORE PUSH1 0x20 ADD PUSH0 KECCAK256 DUP2 SWAP1 SSTORE POP POP DUP1 DUP1 PUSH1 0x1 ADD SWAP2 POP POP PUSH2 0x27E JUMP JUMPDEST POP PUSH0 PUSH8 0xFFFFFFFFFFFFFFFF DUP2 GT ISZERO PUSH2 0x333 JUMPI PUSH2 0x332 PUSH2 0x7BA JUMP JUMPDEST JUMPDEST PUSH1 0x40 MLOAD SWAP1 DUP1 DUP3 MSTORE DUP1 PUSH1 0x20 MUL PUSH1 0x20 ADD DUP3 ADD PUSH1 0x40 MSTORE DUP1 ISZERO PUSH2 0x361 JUMPI DUP2 PUSH1 0x20 ADD PUSH1 0x20 DUP3 MUL DUP1 CALLDATASIZE DUP4 CALLDATACOPY DUP1 DUP3 ADD SWAP2 POP POP SWAP1 POP JUMPDEST POP PUSH0 SWAP1 DUP1 MLOAD SWAP1 PUSH1 0x20 ADD SWAP1 PUSH2 0x376 SWAP3 SWAP2 SWAP1 PUSH2 0x554 JUMP JUMPDEST POP PUSH0 CALLER PUSH20 0xFFFFFFFFFFFFFFFFFFFFFFFFFFFFFFFFFFFFFFFF AND SELFBALANCE PUSH1 0x40 MLOAD PUSH2 0x39C SWAP1 PUSH2 0x814 JUMP JUMPDEST PUSH0 PUSH1 0x40 MLOAD DUP1 DUP4 SUB DUP2 DUP6 DUP8 GAS CALL SWAP3 POP POP POP RETURNDATASIZE DUP1 PUSH0 DUP2 EQ PUSH2 0x3D6 JUMPI PUSH1 0x40 MLOAD SWAP2 POP PUSH1 0x1F NOT PUSH1 0x3F RETURNDATASIZE ADD AND DUP3 ADD PUSH1 0x40 MSTORE RETURNDATASIZE DUP3 MSTORE RETURNDATASIZE PUSH0 PUSH1 0x20 DUP5 ADD RETURNDATACOPY PUSH2 0x3DB JUMP JUMPDEST PUSH1 0x60 SWAP2 POP JUMPDEST POP POP SWAP1 POP DUP1 PUSH2 0x416 JUMPI PUSH1 0x40 MLOAD PUSH32 0x27FCD9D100000000000000000000000000000000000000000000000000000000 DUP2 MSTORE PUSH1 0x4 ADD PUSH1 0x40 MLOAD DUP1 SWAP2 SUB SWAP1 REVERT JUMPDEST POP JUMP JUMPDEST PUSH32 0x0 DUP2 JUMP JUMPDEST PUSH0 DUP2 DUP2 SLOAD DUP2 LT PUSH2 0x44B JUMPI PUSH0 DUP1 REVERT JUMPDEST SWAP1 PUSH0 MSTORE PUSH1 0x20 PUSH0 KECCAK256 ADD PUSH0 SWAP2 POP SLOAD SWAP1 PUSH2 0x100 EXP SWAP1 DIV PUSH20 0xFFFFFFFFFFFFFFFFFFFFFFFFFFFFFFFFFFFFFFFF AND DUP2 JUMP JUMPDEST PUSH0 DUP1 PUSH2 0x481 PUSH2 0x4AF JUMP JUMPDEST SWAP1 POP PUSH0 PUSH8 0xDE0B6B3A7640000 DUP5 DUP4 PUSH2 0x499 SWAP2 SWAP1 PUSH2 0x828 JUMP JUMPDEST PUSH2 0x4A3 SWAP2 SWAP1 PUSH2 0x896 JUMP JUMPDEST SWAP1 POP DUP1 SWAP3 POP POP POP SWAP2 SWAP1 POP JUMP JUMPDEST PUSH0 DUP1 PUSH20 0x694AA1769357215DE4FAC081BF1F309ADC325306 SWAP1 POP PUSH0 DUP2 PUSH20 0xFFFFFFFFFFFFFFFFFFFFFFFFFFFFFFFFFFFFFFFF AND PUSH4 0xFEAF968C PUSH1 0x40 MLOAD DUP2 PUSH4 0xFFFFFFFF AND PUSH1 0xE0 SHL DUP2 MSTORE PUSH1 0x4 ADD PUSH1 0xA0 PUSH1 0x40 MLOAD DUP1 DUP4 SUB DUP2 DUP7 GAS STATICCALL ISZERO DUP1 ISZERO PUSH2 0x512 JUMPI RETURNDATASIZE PUSH0 DUP1 RETURNDATACOPY RETURNDATASIZE PUSH0 REVERT JUMPDEST POP POP POP POP PUSH1 0x40 MLOAD RETURNDATASIZE PUSH1 0x1F NOT PUSH1 0x1F DUP3 ADD AND DUP3 ADD DUP1 PUSH1 0x40 MSTORE POP DUP2 ADD SWAP1 PUSH2 0x536 SWAP2 SWAP1 PUSH2 0x94C JUMP JUMPDEST POP POP POP SWAP2 POP POP PUSH5 0x2540BE400 DUP2 PUSH2 0x54D SWAP2 SWAP1 PUSH2 0x828 JUMP JUMPDEST SWAP3 POP POP POP SWAP1 JUMP JUMPDEST DUP3 DUP1 SLOAD DUP3 DUP3 SSTORE SWAP1 PUSH0 MSTORE PUSH1 0x20 PUSH0 KECCAK256 SWAP1 DUP2 ADD SWAP3 DUP3 ISZERO PUSH2 0x5CA JUMPI SWAP2 PUSH1 0x20 MUL DUP3 ADD JUMPDEST DUP3 DUP2 GT ISZERO PUSH2 0x5C9 JUMPI DUP3 MLOAD DUP3 PUSH0 PUSH2 0x100 EXP DUP2 SLOAD DUP2 PUSH20 0xFFFFFFFFFFFFFFFFFFFFFFFFFFFFFFFFFFFFFFFF MUL NOT AND SWAP1 DUP4 PUSH20 0xFFFFFFFFFFFFFFFFFFFFFFFFFFFFFFFFFFFFFFFF AND MUL OR SWAP1 SSTORE POP SWAP2 PUSH1 0x20 ADD SWAP2 SWAP1 PUSH1 0x1 ADD SWAP1 PUSH2 0x572 JUMP JUMPDEST JUMPDEST POP SWAP1 POP PUSH2 0x5D7 SWAP2 SWAP1 PUSH2 0x5DB JUMP JUMPDEST POP SWAP1 JUMP JUMPDEST JUMPDEST DUP1 DUP3 GT ISZERO PUSH2 0x5F2 JUMPI PUSH0 DUP2 PUSH0 SWAP1 SSTORE POP PUSH1 0x1 ADD PUSH2 0x5DC JUMP JUMPDEST POP SWAP1 JUMP JUMPDEST PUSH0 DUP1 REVERT JUMPDEST PUSH0 PUSH20 0xFFFFFFFFFFFFFFFFFFFFFFFFFFFFFFFFFFFFFFFF DUP3 AND SWAP1 POP SWAP2 SWAP1 POP JUMP JUMPDEST PUSH0 PUSH2 0x623 DUP3 PUSH2 0x5FA JUMP JUMPDEST SWAP1 POP SWAP2 SWAP1 POP JUMP JUMPDEST PUSH2 0x633 DUP2 PUSH2 0x619 JUMP JUMPDEST DUP2 EQ PUSH2 0x63D JUMPI PUSH0 DUP1 REVERT JUMPDEST POP JUMP JUMPDEST PUSH0 DUP2 CALLDATALOAD SWAP1 POP PUSH2 0x64E DUP2 PUSH2 0x62A JUMP JUMPDEST SWAP3 SWAP2 POP POP JUMP JUMPDEST PUSH0 PUSH1 0x20 DUP3 DUP5 SUB SLT ISZERO PUSH2 0x669 JUMPI PUSH2 0x668 PUSH2 0x5F6 JUMP JUMPDEST JUMPDEST PUSH0 PUSH2 0x676 DUP5 DUP3 DUP6 ADD PUSH2 0x640 JUMP JUMPDEST SWAP2 POP POP SWAP3 SWAP2 POP POP JUMP JUMPDEST PUSH0 DUP2 SWAP1 POP SWAP2 SWAP1 POP JUMP JUMPDEST PUSH2 0x691 DUP2 PUSH2 0x67F JUMP JUMPDEST DUP3 MSTORE POP POP JUMP JUMPDEST PUSH0 PUSH1 0x20 DUP3 ADD SWAP1 POP PUSH2 0x6AA PUSH0 DUP4 ADD DUP5 PUSH2 0x688 JUMP JUMPDEST SWAP3 SWAP2 POP POP JUMP JUMPDEST PUSH2 0x6B9 DUP2 PUSH2 0x619 JUMP JUMPDEST DUP3 MSTORE POP POP JUMP JUMPDEST PUSH0 PUSH1 0x20 DUP3 ADD SWAP1 POP PUSH2 0x6D2 PUSH0 DUP4 ADD DUP5 PUSH2 0x6B0 JUMP JUMPDEST SWAP3 SWAP2 POP POP JUMP JUMPDEST PUSH2 0x6E1 DUP2 PUSH2 0x67F JUMP JUMPDEST DUP2 EQ PUSH2 0x6EB JUMPI PUSH0 DUP1 REVERT JUMPDEST POP JUMP JUMPDEST PUSH0 DUP2 CALLDATALOAD SWAP1 POP PUSH2 0x6FC DUP2 PUSH2 0x6D8 JUMP JUMPDEST SWAP3 SWAP2 POP POP JUMP JUMPDEST PUSH0 PUSH1 0x20 DUP3 DUP5 SUB SLT ISZERO PUSH2 0x717 JUMPI PUSH2 0x716 PUSH2 0x5F6 JUMP JUMPDEST JUMPDEST PUSH0 PUSH2 0x724 DUP5 DUP3 DUP6 ADD PUSH2 0x6EE JUMP JUMPDEST SWAP2 POP POP SWAP3 SWAP2 POP POP JUMP JUMPDEST PUSH32 0x4E487B7100000000000000000000000000000000000000000000000000000000 PUSH0 MSTORE PUSH1 0x11 PUSH1 0x4 MSTORE PUSH1 0x24 PUSH0 REVERT JUMPDEST PUSH0 PUSH2 0x764 DUP3 PUSH2 0x67F JUMP JUMPDEST SWAP2 POP PUSH2 0x76F DUP4 PUSH2 0x67F JUMP JUMPDEST SWAP3 POP DUP3 DUP3 ADD SWAP1 POP DUP1 DUP3 GT ISZERO PUSH2 0x787 JUMPI PUSH2 0x786 PUSH2 0x72D JUMP JUMPDEST JUMPDEST SWAP3 SWAP2 POP POP JUMP JUMPDEST PUSH32 0x4E487B7100000000000000000000000000000000000000000000000000000000 PUSH0 MSTORE PUSH1 0x32 PUSH1 0x4 MSTORE PUSH1 0x24 PUSH0 REVERT JUMPDEST PUSH32 0x4E487B7100000000000000000000000000000000000000000000000000000000 PUSH0 MSTORE PUSH1 0x41 PUSH1 0x4 MSTORE PUSH1 0x24 PUSH0 REVERT JUMPDEST PUSH0 DUP2 SWAP1 POP SWAP3 SWAP2 POP POP JUMP JUMPDEST POP JUMP JUMPDEST PUSH0 PUSH2 0x7FF PUSH0 DUP4 PUSH2 0x7E7 JUMP JUMPDEST SWAP2 POP PUSH2 0x80A DUP3 PUSH2 0x7F1 JUMP JUMPDEST PUSH0 DUP3 ADD SWAP1 POP SWAP2 SWAP1 POP JUMP JUMPDEST PUSH0 PUSH2 0x81E DUP3 PUSH2 0x7F4 JUMP JUMPDEST SWAP2 POP DUP2 SWAP1 POP SWAP2 SWAP1 POP JUMP JUMPDEST PUSH0 PUSH2 0x832 DUP3 PUSH2 0x67F JUMP JUMPDEST SWAP2 POP PUSH2 0x83D DUP4 PUSH2 0x67F JUMP JUMPDEST SWAP3 POP DUP3 DUP3 MUL PUSH2 0x84B DUP2 PUSH2 0x67F JUMP JUMPDEST SWAP2 POP DUP3 DUP3 DIV DUP5 EQ DUP4 ISZERO OR PUSH2 0x862 JUMPI PUSH2 0x861 PUSH2 0x72D JUMP JUMPDEST JUMPDEST POP SWAP3 SWAP2 POP POP JUMP JUMPDEST PUSH32 0x4E487B7100000000000000000000000000000000000000000000000000000000 PUSH0 MSTORE PUSH1 0x12 PUSH1 0x4 MSTORE PUSH1 0x24 PUSH0 REVERT JUMPDEST PUSH0 PUSH2 0x8A0 DUP3 PUSH2 0x67F JUMP JUMPDEST SWAP2 POP PUSH2 0x8AB DUP4 PUSH2 0x67F JUMP JUMPDEST SWAP3 POP DUP3 PUSH2 0x8BB JUMPI PUSH2 0x8BA PUSH2 0x869 JUMP JUMPDEST JUMPDEST DUP3 DUP3 DIV SWAP1 POP SWAP3 SWAP2 POP POP JUMP JUMPDEST PUSH0 PUSH10 0xFFFFFFFFFFFFFFFFFFFF DUP3 AND SWAP1 POP SWAP2 SWAP1 POP JUMP JUMPDEST PUSH2 0x8E4 DUP2 PUSH2 0x8C6 JUMP JUMPDEST DUP2 EQ PUSH2 0x8EE JUMPI PUSH0 DUP1 REVERT JUMPDEST POP JUMP JUMPDEST PUSH0 DUP2 MLOAD SWAP1 POP PUSH2 0x8FF DUP2 PUSH2 0x8DB JUMP JUMPDEST SWAP3 SWAP2 POP POP JUMP JUMPDEST PUSH0 DUP2 SWAP1 POP SWAP2 SWAP1 POP JUMP JUMPDEST PUSH2 0x917 DUP2 PUSH2 0x905 JUMP JUMPDEST DUP2 EQ PUSH2 0x921 JUMPI PUSH0 DUP1 REVERT JUMPDEST POP JUMP JUMPDEST PUSH0 DUP2 MLOAD SWAP1 POP PUSH2 0x932 DUP2 PUSH2 0x90E JUMP JUMPDEST SWAP3 SWAP2 POP POP JUMP JUMPDEST PUSH0 DUP2 MLOAD SWAP1 POP PUSH2 0x946 DUP2 PUSH2 0x6D8 JUMP JUMPDEST SWAP3 SWAP2 POP POP JUMP JUMPDEST PUSH0 DUP1 PUSH0 DUP1 PUSH0 PUSH1 0xA0 DUP7 DUP9 SUB SLT ISZERO PUSH2 0x965 JUMPI PUSH2 0x964 PUSH2 0x5F6 JUMP JUMPDEST JUMPDEST PUSH0 PUSH2 0x972 DUP9 DUP3 DUP10 ADD PUSH2 0x8F1 JUMP JUMPDEST SWAP6 POP POP PUSH1 0x20 PUSH2 0x983 DUP9 DUP3 DUP10 ADD PUSH2 0x924 JUMP JUMPDEST SWAP5 POP POP PUSH1 0x40 PUSH2 0x994 DUP9 DUP3 DUP10 ADD PUSH2 0x938 JUMP JUMPDEST SWAP4 POP POP PUSH1 0x60 PUSH2 0x9A5 DUP9 DUP3 DUP10 ADD PUSH2 0x938 JUMP JUMPDEST SWAP3 POP POP PUSH1 0x80 PUSH2 0x9B6 DUP9 DUP3 DUP10 ADD PUSH2 0x8F1 JUMP JUMPDEST SWAP2 POP POP SWAP3 SWAP6 POP SWAP3 SWAP6 SWAP1 SWAP4 POP JUMP INVALID LOG2 PUSH5 0x6970667358 0x22 SLT KECCAK256 0xAF 0x1E 0xD0 0xBE 0x28 PUSH28 0xF7A70F3991C4B7A9330F065D8ACDDF2DCD38811ABC09C4ED4E096473 PUSH16 0x6C634300081A00330000000000000000 "
				},
				"gasEstimates": {
					"creation": {
						"codeDepositCost": "510600",
						"executionCost": "infinite",
						"totalCost": "infinite"
					},
					"external": {
						"": "infinite",
						"MINIMUM_USD()": "325",
						"addressToAmountFunded(address)": "2780",
						"fund()": "infinite",
						"funders(uint256)": "5031",
						"i_owner()": "infinite",
						"withdrawal()": "infinite"
					}
				},
				"methodIdentifiers": {
					"MINIMUM_USD()": "6b69a592",
					"addressToAmountFunded(address)": "3e47d6f3",
					"fund()": "b60d4288",
					"funders(uint256)": "dc0d3dff",
					"i_owner()": "dba6335f",
					"withdrawal()": "d4e93292"
				}
			},
			"storageLayout": {
				"storage": [
					{
						"astId": 64,
						"contract": "Solidity/FundMe.sol:FundMe",
						"label": "funders",
						"offset": 0,
						"slot": "0",
						"type": "t_array(t_address)dyn_storage"
					},
					{
						"astId": 68,
						"contract": "Solidity/FundMe.sol:FundMe",
						"label": "addressToAmountFunded",
						"offset": 0,
						"slot": "1",
						"type": "t_mapping(t_address,t_uint256)"
					}
				],
				"types": {
					"t_address": {
						"encoding": "inplace",
						"label": "address",
						"numberOfBytes": "20"
					},
					"t_array(t_address)dyn_storage": {
						"base": "t_address",
						"encoding": "dynamic_array",
						"label": "address[]",
						"numberOfBytes": "32"
					},
					"t_mapping(t_address,t_uint256)": {
						"encoding": "mapping",
						"key": "t_address",
						"label": "mapping(address => uint256)",
						"numberOfBytes": "32",
						"value": "t_uint256"
					},
					"t_uint256": {
						"encoding": "inplace",
						"label": "uint256",
						"numberOfBytes": "32"
					}
				}
			},
			"userdoc": {
				"kind": "user",
				"methods": {},
				"version": 1
			}
		}
	}
}